:020000040800F2
:100000006806012071020008790200087B020008DE
:100010007D0200087F020008810200080000000045
:100020000000000000000000000000008302000843
:10003000850200080000000087020008B11C0008CB
:100040008B0200088B0200088B0200088B0200085C
:100050008B0200088B0200088B0200088B0200084C
:100060008B0200088B0200088B0200088B0200083C
:100070008B0200088B0200088B0200088B0200082C
:100080008B0200088B0200088B0200088B0200081C
:100090008B0200088B0200088B0200088B0200080C
:1000A0008B0200088B0200088B0200088B020008FC
:1000B0008B0200088B0200088B0200088B020008EC
:1000C0008B0200088B0200088B0200088B020008DC
:1000D0008B0200088B0200088B0200088B020008CC
:1000E0008B0200088B0200088B0200088B020008BC
:1000F0008B0200088B0200088B0200088B020008AC
:100100008B0200088B0200088B0200088B0200089B
:100110008B0200088B0200088B0200088B0200088B
:100120008B0200088B0200088B0200088B0200087B
:100130008B0200088B0200088B0200088B0200086B
:100140008B0200088B0200088B0200081D1C0008AF
:100150008B0200088B0200088B0200088B0200084B
:100160008B0200088B0200088B0200088B0200083B
:100170008B0200088B0200088B02000800000000C0
:100180008B0200088B02000800F002F800F060F813
:100190000AA090E8000C82448344AAF10107DA45E2
:1001A00001D100F055F8AFF2090EBAE80F0013F0D4
:1001B000010F18BFFB1A43F0010318475C40000011
:1001C0007C4000000A444FF0000C10F8013B13F093
:1001D000070408BF10F8014B1D1108BF10F8015BA0
:1001E000641E05D010F8016B641E01F8016BF9D193
:1001F00013F0080F1EBF10F8014BAD1C0C1B09D1EA
:100200006D1E58BF01F801CBFAD505E014F8016B5B
:1002100001F8016B6D1EF9D59142D6D370470000ED
:100220000023002400250026103A28BF78C1FBD8FF
:10023000520728BF30C148BF0B6070471FB503F09D
:10024000F3FE9DE8030000F09BF91FBD10B510BD43
:1002500000F0F2F91146FFF7F1FF03F023FC00F084
:1002600010FA03B4FFF7F2FF03BC00F041FA0000FC
:100270000948804709480047FEE7FEE7FEE7FEE73A
:10028000FEE7FEE7FEE7FEE7FEE7FEE70448054976
:10029000054A064B70470000711D000889010008DF
:1002A000681200206806012068020120680201200F
:1002B00070B5064600F048F9056806F10B0020F01D
:1002C0000704B4429CBF002070BD2B466A68BAB1D7
:1002D0001068A04210D304F1080188423CBF506866
:1002E000586007D35168101941601168091B0160FB
:1002F00058601460101D70BD13465268002AE7D183
:100300002146284600F028F90028DED170BD70B5DE
:100310000446051F00F018F90068002C14BF44685B
:1003200070BD002C18BFAC423CBF20466468F8D3B7
:1003300001680A18AA4218BF456003D12A68054619
:100340001144016028684119A1421CBF6C6070BD56
:100350006168696021680844286070BD70B50D4609
:100360000646041F00F0F0F8D0F800C0C5B1E6B1B1
:1003700005F10B0020F00703AB423CBF002070BD2D
:100380002068984238BFDCF8042013D3C11A08292A
:100390002FD3E01840F8041B2360FFF7B8FF28E0D4
:1003A0003046FFF7B4FF002070BD2846BDE870401E
:1003B000FFF77EBF002A18BFA2423CBF9446526896
:1003C000F8D30119914216D111680844984212D30A
:1003D000C11A08293CBF2060506808D35168E01852
:1003E0004160216812681144C91A01602360CCF889
:1003F0000400201D70BD181FFFF75AFF050007D02D
:1004000021680A1F211D00F069F8201DFFF77FFFFA
:10041000284670BD10B5431C02E010F8011B71B1F5
:100420008107FAD14FF0013202C88C1A8C4314EACA
:10043000C211F9D0C01A0A0603D0C01E10BDC01ADE
:1004400010BD0A0401D0801E10BD0902FCD0401E60
:1004500010BD032A40F2308010F0030C00F015802C
:1004600011F8013BBCF1020F624498BF11F801CBB7
:1004700000F8013B38BF11F8013BA2F1040298BF1C
:1004800000F801CB38BF00F8013B11F0030300F086
:100490002580083AC0F0088051F8043B083A51F82A
:1004A00004CBA0E80810F5E7121D5CBF51F8043B2F
:1004B00040F8043BAFF30080D20724BF11F8013BA2
:1004C00011F801CB48BF11F8012B24BF00F8013B04
:1004D00000F801CB48BF00F8012B704710B5203A57
:1004E000C0F00B80B1E81850203AA0E81850B1E8ED
:1004F0001850A0E81850BFF4F5AF5FEA027C24BFA3
:10050000B1E81850A0E8185044BF18C918C0BDE899
:1005100010405FEA827C24BF51F8043B40F8043B62
:1005200008BF7047D20728BF31F8023B48BF11F817
:10053000012B28BF20F8023B48BF00F8012B704771
:100540007047704770470000004870471012002045
:10055000704770477047704738B504460A46002018
:100560006946AFF30080002808BF38BD02460099F5
:10057000204600F03FF8012038BD012000F054B8BB
:10058000F8B5AFF30080054600200C46102000BFF0
:100590000646A819A0420DD9324669460020AFF39D
:1005A0000080070008BF00F03FF80098A04218BF85
:1005B0000546C419FFF7C8FF05600746F01D20F087
:1005C00007004619284600F00AF8B44208BFF8BDF3
:1005D000A21B31463868BDE8F84000F00BB8002196
:1005E0000160C0E901107047102070470048704753
:1005F00008120020034640688C46002818BF884235
:100600003CBF03464068F8D318681844884207D0B6
:100610000CF1030020F00700001D411A521A014698
:10062000081D0A60FFF773BE10B500F039F8BDE889
:10063000104000F02FB870477546FFF7D7FFAE4661
:1006400005006946534620F00700854618B020B5DE
:10065000FFF71CFEBDE820404FF000064FF00007FA
:100660004FF000084FF0000B21F00701AC46ACE85A
:10067000C009ACE8C009ACE8C009ACE8C0098D46C7
:10068000704710B50446AFF300802046BDE8104027
:10069000FFF7E7BD002801D000F02AB8704700003E
:1006A00010B5012805D0002103A000F027F8012093
:1006B00010BD09A1F8E7000053494752544D454D7C
:1006C0003A204F7574206F662068656170206D65F3
:1006D0006D6F7279000000003A2048656170206DEE
:1006E000656D6F727920636F7272757074656400E6
:1006F00001491820ABBEFEE72600020070B5054692
:100700000C460A2000E06D1C00F011F835B1287885
:100710000028F8D102E0641C00F009F814B1207838
:100720000028F8D1BDE870400A20AFF3008008B57A
:1007300069468DF800000320ABBE08BD042813DD18
:10074000202811D1094802780A700288120A4A70DA
:100750000268120C8A700268120ECA7002790A715D
:1007600042794A7180798871002070472801002001
:100770000020704710B500220449054801F0BCFC78
:100780000449034801F0B2FC002010BDE409002038
:10079000E40D0020E405002070B50E4D0C460A68FB
:1007A00029685318B3F5806F0AD80B4B0B440146E8
:1007B0001846FFF74EFE206829680844286007E0C5
:1007C00001460548FFF745FE206828600020686064
:1007D000002070BD20010020E40900200A460949DC
:1007E00010B5D1F81812D1F8141209B1012010BDBA
:1007F0000146044801F080FCBDE81040014801F0CA
:10080000BBBC0000E40D002031B500F0F1F8009C05
:100810000546601C00D0641C00F0EAF8401BA042B2
:10082000FAD338BD2DE9F84FDFF88C91002209F199
:10083000040A0AF1040B4FF00F080BF1040E012615
:100840000B6896403340B34271D14C68022C01D002
:10085000122C11D1D40800EB84073D6A5407E40E32
:1008600008FA04FC25EA0C05D1F810C00CFA04FCC7
:100870004CEA050CC7F820C007685400032591F81E
:1008800004C0A5400CF0030CAF430CFA04FC4CEA86
:10089000070CC0F800C04F68012F05D0022F03D00D
:1008A000112F01D0122F11D18768D1F80CC0AF439E
:1008B0000CFA04FC4CEA070CC0F808C04768B743C0
:1008C0000E79C6F3001696403E434660C668AE43B6
:1008D0008D68A5403543C5604C68E40065D5374C4C
:1008E000256845F480452560246822F0030504F45A
:1008F00080440094324C2E19D6F808789407250FBE
:1009000008FA05F4A7432F4CA04201D1002424E0AB
:100910002D4CA04201D101241FE02C4CA04201D15A
:1009200002241AE02A4CA04202D1032415E03CE044
:10093000284CA04201D104240FE0274CA04201D151
:1009400005240AE0254CA04201D1062405E0244CF0
:10095000A04201D1072400E00824AC403C43C6F883
:100960000848D9F800404D464E689C43F60300D530
:100970001C432C60DAF8004055464E689C43B60391
:1009800000D51C432C60DBF800405D464E689C435C
:10099000F60200D51C432C60DEF8004075464E6818
:1009A0009C43B60200D51C432C60521C102AFFF455
:1009B00046AFBDE8F88F0000003C014044380240DB
:1009C00000300140000002400004024000080240E4
:1009D000000C0240001002400014024000180240C7
:1009E000001C02400AB1816170470904FBE7000066
:1009F00001480068704700000000002002480168BC
:100A0000491C016070470000000000200B4810B531
:100A1000016841F400710160016841F48061016086
:100A2000016841F480710160032000F075F8002036
:100A300000F006F800F018F8002010BD003C02405D
:100A400010B5044607484FF47A710068B0FBF1F026
:100A500000F0ABFF00222146501E00F03DF80020C0
:100A600010BD00000400002010B5072000F054F86D
:100A7000002211466FF00B0000F02EF80022114604
:100A80006FF00A0000F028F8002211466FF009000C
:100A900000F022F800221146501F00F01DF800223D
:100AA0001146101F00F018F800221146901E00F0A9
:100AB00013F80022BDE810401146501E00F00CB89B
:100AC00000F01F02012191404009800000F1E02068
:100AD000C0F8001170470000F0B40E4B1B68C3F360
:100AE0000223C3F10704042C00D904241D1D072D83
:100AF00001D2002300E0DB1E012606FA04F56D1E7C
:100B00000D409D409E40761E164045EA0601F0BC11
:100B100001F074B80CED00E0064A00F0070110681F
:100B20004FF6FF03184040EA0120034908431060D4
:100B3000704700000CED00E00000FA05006841621B
:100B400000207047F0B500680023446A31B1856A1F
:100B50004E1E04EB15444FF482750AE044EA02414C
:100B600081620FE005EB8307C7595B1C04EB174458
:100B7000DBB2B342F6DB4FF4807303EB810144EA4E
:100B8000024242500020F0BDD0F8EC0301F01CBD41
:100B9000C1EBC10200EB8202D0F8EC03526C01F011
:100BA00089BCC1EBC10200EB8202D0F8EC03D2F8A1
:100BB000042201F0D4BCD0F8EC0301F007BD10B55D
:100BC00004460A460B0601F07F00C0EBC00104EBAF
:100BD000810101D5383101E001F5FC710870D009BF
:100BE000487094F8B803012809D0012084F8B803AC
:100BF000206802F02BF8002084F8B80310BD022012
:100C000010BD70B50A460446090602F07F0005D5FE
:100C1000C0EBC00104EB8101383105E0C2EBC20139
:100C200004EB810101F5FC7100258D700870D0097D
:100C3000487094F8B803012809D0012084F8B8035B
:100C4000206802F0E4F984F8B853002070BD022057
:100C500070BD01F00F01C1EBC10100EB8100B0F8E4
:100C6000100280B2704770B504460D460E0601F0C2
:100C70007F00C0EBC00104EB810101D5383101E0F8
:100C800001F5FC71ED0908704D708A60CB7000D0E1
:100C9000C8800025022B00D10D7194F8B8030128FB
:100CA00009D0012084F8B803206801F025FF284608
:100CB00084F8B85370BD022070BD70B50D4601F0C8
:100CC0007F04C4EBC40100EB8101C1F80C32C1F810
:100CD00004220023C1F8103281F8F93181F8F8417B
:100CE000036901F5FC71012B00D10A616A06027CDF
:100CF000006803D002F0ECF9002070BD02F0C8F8E3
:100D0000FAE770B50D460446090605F07F0005D5E3
:100D1000C0EBC00104EB8101383105E0C5EBC50132
:100D200004EB810101F5FC7101228A700870E80969
:100D3000487094F8B803012807D084F8B8232068D5
:100D400002F097F9680602D007E0022070BD217C0E
:100D500004F56F72206802F03BF9002084F8B803B4
:100D600070BD70B50D4601F07F04C4EBC40100EB0B
:100D70008101CB644A6400230B65012381F839307B
:100D800001F8384F0369012B00D10A616A06027C21
:100D9000006803D002F09CF9002070BD02F078F8E2
:100DA000FAE700002DE9F84F0668044600253046B2
:100DB00002F0E2FA002873D1206802F006FB002856
:100DC0006ED0206802F001FB800704D520684169DD
:100DD00001F002014161206802F0F7FA010304F515
:100DE0006F704FF001094FF0080A4FF0100B0090A0
:100DF0004BD5206802F0CBFA074644E0F80740D014
:100E0000E9B2206802F0D9FA8046C00728D006EB84
:100E10004511C1F8089B2069012811D1C5EBC50017
:100E200004EB8000D1F8101BD0F80022C1F31201AE
:100E3000511AC0F81012D0F804121144C0F804126C
:100E4000E9B22046FFF7ADFE2069012808D13DB97F
:100E5000D4F80C0220B920680121009A02F0B8F8F9
:100E60005FEA087006D5204600F0DCFA06EB451173
:100E7000C1F808AB5FEAC86003D506EB4511C1F8BD
:100E800008BB7F086D1C002FB8D1206802F09DFAC6
:100E900040035BD5206802F073FA8046002552E0DB
:100EA000CEE15FEAC8704BD0E9B2206802F076FA72
:100EB0000746C00724D0D6F8341809FA05F0814354
:100EC000C6F8341806EB4510C0F8089920690128C7
:100ED00007D1C5EBC50004EB8000D0E91021114417
:100EE0004164E9B22046FFF753FE2069012807D18B
:100EF00035B9E06C20B920680121009A02F068F849
:100F0000380703D506EB4511C1F808A9F80603D543
:100F100006EB4511C1F808B9780604D506EB451172
:100F20004020C1F80809B80704D506EB4511022096
:100F3000C1F80809380603D52946204600F074FE9A
:100F40004FEA58086D1CB8F1000FAAD1206802F0D2
:100F50003CFA00280DDAD6F8040820F00100C6F8A3
:100F60000408204600F044FA2068416901F000417D
:100F70004161206802F029FA00050BD5D6F808086F
:100F8000C00702D0204600F069FA2068416901F4E8
:100F900000614161206802F018FAC0044BD5D6F810
:100FA000040820F00100C6F804081021206802F0AF
:100FB000B3F90020FF2206E006EB4011C1F8082932
:100FC000C1F8082B401C61688142F5D84FF0FF3012
:100FD000C6F81808D6F81C0840F00110C6F81C081E
:100FE000206B60B1D6F8840840F00B00C6F8840886
:100FF000D6F8440840F00B00C6F844080BE0D6F8D9
:10100000140840F00B00C6F81408D6F8100840F099
:101010000B00C6F81008D6F8000820F4FE60C6F8E9
:101020000008217C2068009A01F0D2FF2068416905
:1010300001F480514161206802F0C7F980047DD538
:10104000206801F099FD2068C16821F47051C160E9
:10105000206802F073F978B10320E06040206061FD
:1010600000F0CEFA7749784A014491420AD22068CA
:10107000C16841F4705158E00020E0604FF4007006
:10108000606136E07149724A0144914204D220689D
:10109000C16841F4605148E06E496F4A0144914291
:1010A00004D22068C16841F450513EE06B496C4A5B
:1010B0000144914204D22068C16841F4405134E0B7
:1010C0006849694A0144914204D22068C16841F4E8
:1010D00030512AE06549664A0144914204D22068B1
:1010E000C16841F4205120E06249634A01449142C1
:1010F00004D22068C16841F4105116E05F49604A8B
:101100000144914204D22068C16841F400510CE0CE
:101110005C4908445C4988422068C16803D241F4B4
:10112000E05102E00AE041F4C051C160204600F005
:101130004FF92068416901F400514161206802F0D3
:1011400044F9C00636D52068816921F0100181611B
:10115000D6F8208008F00F00C0EBC00004EB800739
:10116000C8F3434007F5FC77022802D0062812D0C6
:101170001BE047F6F07118EA010F16D0C8F30A1207
:1011800090463046F96802F024F9F8684044F86067
:10119000B869404408E008223046009902F019F985
:1011A000B969C8F30A100844B8612068816941F040
:1011B00010018161206802F008F9000707D5204678
:1011C00000F01AF92068416901F0080141612068C6
:1011D00002F0FBF8C00208D5E9B2204600F056F84C
:1011E0002068416901F480114161206802F0EDF846
:1011F000800208D5E9B2204600F04CF82068416929
:1012000001F400114161206802F0DFF8400007D5C9
:101210002046FFF7B9FC2068416901F08041416137
:10122000206802F0D2F840070AD5206845686807B0
:1012300002D52046FFF7BFFC206841682943416082
:10124000BDE8F88F405327FF00350C00401E1BFF00
:1012500040420F0000DC0BFF804F1200808CF9FE33
:1012600020D6130060B6E5FE60E3160000D3CEFE84
:1012700040771B00C05BB3FEC091210000CA91FE05
:1012800020753800E05459FEE09C4100D0F8EC0392
:1012900001F0FAB9D0F8EC0301F0F8B9F0B58BB071
:1012A00004004FF0000755D0032084F8B90320460E
:1012B00000F052F8206801F0E5FD04F11001282249
:1012C0000E466846FFF70AF994E80F0001F06EFC3D
:1012D0000021206802F08DF801250022C7EBC7002D
:1012E00004EB800080F8395000F8387FC780C27066
:1012F0008260C2607F1C42610F2FEFD300204FF449
:101300008273C0EBC00104EB810103EB800781F81D
:10131000F92181F8F801C88781F8FB21C1F8002282
:10132000C1F80422C1F80C222168CA51401C0F28C0
:10133000E7D3282231466846FFF7D0F894E80F003B
:1013400001F000FD84F8B953206801F0EFFC0020A3
:101350000BB0F0BD0120FBE730B5006887B0B0F1FD
:10136000A04F2ED100244FF40070CDE90004164D9B
:10137000694628460294FFF755FA4FF4E050009072
:101380000220CDE901040A20CDE903406946284640
:10139000FFF748FA0D48016841F0800101600B48F1
:1013A0001030016841F4804101600068002200F4BF
:1013B0008040059011464320FFF78EFB4320FFF746
:1013C0007FFB07B030BD000000000240343802400F
:1013D00010B50446C068012100B90021D4F8EC031F
:1013E00001F0AAF9D4F8EC03BDE8104001F073B99C
:1013F000D0F8EC0301F08EB9D0F8EC0301F090B90D
:1014000010B5044690F8B803012809D0012084F8EB
:10141000B803206802F003F8002084F8B80310BD78
:10142000022010BDD0F8EC2300F56F71104601F0DA
:1014300096B910B5044690F8B80301280CD00120E5
:1014400084F8B803206801F065FC206801F04EFFC5
:10145000002084F8B80310BD022010BD10B504466A
:10146000D0F8EC0301F0C8F92068D0F8001E41F074
:101470000101C0F8001E206A002804D0024801685B
:1014800041F00601016010BD10ED00E02DE9F047CC
:10149000DFF85C9104460E46D9F8000000F00F0119
:1014A000F0B28046B14207D289F80000D9F80000B6
:1014B00000F00F00B04271D120784E4F800705D563
:1014C0003868A16820F0F000084338602078C00731
:1014D00056D048496068083901281AD002281BD024
:1014E000032819D009688907002957DA396821F0DB
:1014F000030101433960FFF77BFA0546606841F25A
:101500008831012811D002281CD003288A4625D012
:1015100032E009688903E7E709688901E4E7FFF732
:1015200067FA411B514501D923E08A463868C0F368
:1015300081000128F3D123E0FFF75AFA411B5145FE
:1015400001D916E08A463868C0F381000228F3D139
:1015500016E0FFF74DFA411B51450AD83868C0F331
:1015600081000328F5D10BE0FFF742FA411B5145FA
:1015700002D90320BDE8F087386810F00C0FF3D1D2
:10158000D9F80010484601F00F01B14208D980F89F
:101590000080006800F00F00B04201D00120E9E7B0
:1015A0002078400705D53868E16820F4E05008430A
:1015B00038602078000706D53868216920F460403B
:1015C00040EAC100386000F021F83968F02292FA50
:1015D000A2F201F0F001B2FA82F2D140064A515C67
:1015E000C840064908600020FFF72AFA0020C1E73A
:1015F000003C02400838024032400008040000204D
:1016000001480068704700000400002030B5194808
:10161000006810F00C01184812D0441004290ED0B4
:1016200008290DD1134A121F1168136801F03F01F8
:101630005D0247F6C07304D5B4FBF1F003E0204629
:1016400030BDB0FBF1F01168194093FAA3F3B3FA7F
:1016500083F3D940484311684FF4403292FAA2F222
:1016600001F44031B2FA82F2D140491C4900B0FB8A
:10167000F1F030BD083802400024F4002DE9F84FA5
:1016800004460078DFF8F4A2BD4DC00748D0DAF870
:1016900000105046C1F38101012908D00068C0F351
:1016A000810002280AD1281D0068400206D528685A
:1016B000800335D56068002870D031E06068B0F5EF
:1016C000803F10D0B0F5A02F286810D020F48030D3
:1016D0002860286820F4802028606068A0B1FFF7A7
:1016E00087F906460CE0286840F48030F4E740F4BF
:1016F00080202860F7E7FFF77BF9801B642873D808
:1017000028688003F7D50BE0FFF772F9064604E07E
:10171000FFF76EF9801B6428F1D828688003F7D49E
:101720002078DFF8608280074FF0010B4FF000094E
:1017300043D5DAF80010504611F00C0F4FF0F807BF
:1017400009D00068C0F3810002280BD18B48001F2C
:101750000068400206D42868800713D5E068012895
:101760001CD10FE0E068D0B1C8F800B0FFF740F935
:10177000064604E0FFF73CF9801B0228BFD8286822
:101780008007F7D5286897FAA7F22169B2FA82F2A2
:1017900020F0F8009140084328600EE0EBE0C8F824
:1017A0000090FFF725F9064604E0FFF721F9801BBA
:1017B000022819D828688007F7D42078000722D596
:1017C0006E4F714861696C3779B1C0F800B0FFF7AE
:1017D0000FF9064604E0FFF70BF9801B022803D837
:1017E00038688007F7D50EE079E0C0F80090FFF781
:1017F000FFF8064604E0FFF7FBF8801B02286ED8CE
:1018000038688007F7D42078400750D55B483830D7
:10181000016841F08051016000685C4F00F0805029
:101820000090386840F480703860FFF7E1F80646B1
:1018300004E0FFF7DDF8801B022850D83868C005A7
:10184000F7D54E4FA068683701280FD005283868B3
:1018500010D020F001003860386820F004003860B3
:10186000A068B0B1FFF7C4F806460EE0386840F053
:101870000100F4E740F004003860F7E7FFF7B8F83C
:10188000811B41F2883081426DD838688007F5D5D8
:101890000DE0FFF7ADF8064606E0FFF7A9F8811B5B
:1018A00041F2883081425ED838688007F5D4A0695B
:1018B000F0B3DAF80010C1F3810102295BD00228ED
:1018C000484605D0C8F86000FFF792F804464DE09E
:1018D0004746C8F86000FFF78BF8064605E042E08F
:1018E000FFF786F8801B02283DD828688001F7D4CE
:1018F000D4E90701084347F6C07292FAA2F2616A7E
:10190000B2FA82F29140A26A4FF0FF3303EB520227
:101910004FF4403393FAA3F3B3FA83F39A4011439D
:101920004FF0706292FAA2F20843B2FA82F200E03B
:101930001FE0E16A914008431049091F0860C7F899
:1019400060B0FFF755F8044604E0FFF751F8001BBC
:10195000022808D828688001F7D50AE0FFF748F880
:10196000001B022802D90320BDE8F88F28688001F7
:10197000F4D40020F8E70120F6E700000838024020
:101980000038024000004742800E4742007000408D
:101990004FF0E0210428086903D020F0040008611A
:1019A000704740F00400FAE7704710B5401EB0F1F0
:1019B000807F01D3012010BD4FF0E02460610F2132
:1019C000601700F01BF90020A061072020610020B3
:1019D00010BD10B5FFF7E8FF10BD30B590F8382006
:1019E000012A20D0012380F83830022280F83920E3
:1019F0000268546824F070045460026854680D68EA
:101A00002C4354600268946824F080049460026857
:101A1000946849680C43946080F83930002180F85C
:101A20003810084630BD022030BD10B5040003D088
:101A300094F8390010B107E0012010BD002084F8AF
:101A40003800204600F00CF8022084F83900211DEF
:101A5000206800F0B7F9012084F83900002010BD9B
:101A600008B500680649884208D10648016841F077
:101A700001010160006800F00100009008BD000055
:101A800000000140443802402DE9F0410D460400B9
:101A900003D094F8390018B108E00120BDE8F081C6
:101AA000002084F83800204600F03AF8022084F83C
:101AB00039002068816821F007018160211D2068BC
:101AC00000F080F9206881688269066A2B68AF6936
:101AD0000B4340F203318A4342EA0722A968EF69C7
:101AE00011434FF6FC429143EA6841EA07210A4359
:101AF00029692F6A090141EA0737696817436D6947
:101B000026F0AA0242EA0512114383602068876129
:101B100020680162012084F839000020BEE700003F
:101B200030B50068124987B088421ED111480024A0
:101B3000016841F0020101600068022500F0020026
:101B4000059040200090CDE9015469460A48CDE94E
:101B50000345FEF767FE20200090CDE90154694659
:101B60000648CDE90345FEF75DFE07B030BD000035
:101B700000040040403802400008024000040240D7
:101B800070B5044690F83800012818D0012584F873
:101B90003850022084F83900204600F07DF9206892
:101BA000C16821F04001C1602068C16821F4804112
:101BB000C16084F83950002084F8380070BD0220DC
:101BC00070BD000010B500220849094800F03DFC36
:101BD0000849074800F03DFE0749054800F07EFA35
:101BE000BDE81040024800F081BE0000480100201E
:101BF000E40D0020E8000020300100200907090E54
:101C0000002806DA00F00F0000F1E02080F8141D33
:101C1000704700F1E02080F8001470470148FFF79A
:101C2000C1B80000F40100202DE9F84F0E46C1EBC9
:101C3000C60100EB81048146D0F80080D4E913018D
:101C4000451A206C3834A84200D20546E81C8708A3
:101C500008EB461A15E0451AA068A84200D20546CE
:101C6000E81C870899F810000090ABB2F2B2404629
:101C7000E16801F0E5FBE0682844E060A0692844E1
:101C8000A061DAF8180980B2B84205D9D4E9050193
:101C9000814201D20028DED135B90120D8F83418AC
:101CA000B0408143C8F834180020BDE8F88F000028
:101CB000074810B5D0E900134A1C43F10001C0E900
:101CC0000021FEF79BFEBDE81040FFF782BE00003A
:101CD0004001002030B5244893B00025016841F050
:101CE00080510160006800F0805011901F48016829
:101CF00041F4804101600068022400F480401190AA
:101D000001200090000401908001CDE906400420EC
:101D100008904820CDE9090403200B906846FFF79E
:101D2000ADFC00B1FEE70CA90F2081E831004FF4B3
:101D30008050CDE90F0502210CA8FFF7A7FB00B1E9
:101D4000FEE7FFF75DFC4FF47A71B0FBF1F0FFF7AF
:101D50002CFE0420FFF71CFE00221146501EFEF749
:101D6000BBFE13B030BD00004038024000700040A0
:101D70001048016841F4700101600F48016841F0AA
:101D8000010101600C4A00210832116002680B4B0E
:101D90001A400260031D0A4A1A60026822F4802277
:101DA000026005480C30016002495806803908601D
:101DB0007047000088ED00E000380240FFFFF6FEAB
:101DC00010300024F0B50268234D244E244FDFF874
:101DD00094C0254B4FF0804EA84209D0704507D0E3
:101DE000B04205D0B84203D0604501D0984203D13B
:101DF00022F070044A682243A8421BD0704519D0D3
:101E0000B04217D0B84215D0604513D0984211D0D7
:101E1000164CA0420ED0164CA0420BD0154CA0423E
:101E200008D0154CA04205D0144CA04202D0144C4E
:101E3000A04203D122F44074CA68224302608A6837
:101E4000C2620A688262A84201D0984201D109693F
:101E5000016301214161F0BD000001400004004028
:101E600000080040000C0040000401400040014018
:101E7000004401400048014000180040001C0040A0
:101E80000020004010B5846842EA032224F47F4415
:101E90000A432243826010BD30B40268936823F085
:101EA00070044B68234323F007040B6823439360BB
:101EB0004A6812F00F0F1FD11211082A1CD2DFE856
:101EC00002F01B1B1B1B0B1D23040B69D1E9022114
:101ED000006830BCFFF7D6BF0268146A136A23F0AB
:101EE0000103136202689369096923F0F00343EA6E
:101EF000011191610068046230BC70470A69896809
:101F0000006830BC00F006B80A698968006830BC17
:101F100000F011B810B5046A036A23F001030362EC
:101F2000836923F0F00343EA021324F00A020A4310
:101F30008361026210BD10B5036A23F010030362CF
:101F40008469036A24F4704444EA023223F0A00353
:101F500043EA01118261016210BDD0F8180220B17C
:101F60000021C0F81412084670470220704770B56F
:101F70000546D0F8184200F034FBC4F80C02D5F83E
:101F8000180248B1D5F81C12D4F80402CA6804F546
:101F900003719047002070BD022070BD70B50446EB
:101FA0000025812100F076FA0121204600F072FA26
:101FB0008221204600F06EFAD4F8180250B1D4F80D
:101FC0001C0204F50674406880472068FEF79FF9FC
:101FD00000202060284670BD10B5D0E9864159B177
:101FE00094F80002FF2807D08B6894F8012221465C
:101FF0009847FF2084F80002002010BD0A210180CC
:1020000000487047100000204321018000487047BD
:102010006000002043210180004870471C00002020
:102020004321018000487047A40000202DE9F041C1
:102030000546007C00264FF4007770B3402302224F
:102040008121284600F024FB40230222012128465A
:1020500000F01EFB082303228221284600F018FB13
:102060004FF40770FEF724F9C5F81802F0B10446E2
:10207000D5F81C02006880470021C4F81412C4F887
:102080001812287CD4F8042290B14023012128465C
:1020900000F011FB3046BDE8F081FFE73B4602222D
:1020A0008121284600F0F4FA3B46CEE70126F1E70D
:1020B0003B46EBE710B5D0F8181269B1027C002A54
:1020C000D1F8042205D04023012100F0F4FA0020C9
:1020D00010BD4FF40073F7E7022010BD0246022046
:1020E000002902D00020C2F81C127047D0F8180254
:1020F000C0F8041200207047D0F81802C0F810226F
:10210000C0F808120020704770B50646D0F8185283
:1021100008780C4610F0600121D0202927D1E288F0
:10212000AAB10006607807D5D6F81C128B6829463C
:102130009847E288294617E085F80002A07985F8DB
:102140000102E2882946304600F050F80FE0D6F848
:102150001C12607800228B682146984707E060785F
:102160000A2804D103490122304600F059F8002022
:1021700070BD00000C00002010B5D0F8181289B115
:10218000D1F814220AB1012010BD0122C1F8142295
:10219000B1F8102293B2D1F80822812100F035FB6A
:1021A000002010BD022010BD10B5D0F814225268D6
:1021B0009047002010BD134610B50A46002100F0DC
:1021C0007AFA002010BD134610B50A46002100F02F
:1021D0001CFB002010BD10B50446802100F0ECFA75
:1021E0002046BDE81040002100F0E6BA10B50323F8
:1021F000C0F80821C0F8F431C0F80C2113460A4693
:10220000002100F058FA002010BD10B50521002370
:10221000C0F8F4111A46194600F04DFA002010BD1E
:1022200010B502238261C0F8F431C26113460A4638
:10223000002100F0EAFA002010BD10B504210023AF
:10224000C0F8F4111A46194600F0DFFA002010BD5C
:1022500010B50A46024903A000F0D4F8004810BDAA
:102260000810002043444320436F6E6669670000F6
:1022700012200880004870476801002010B50A4607
:10228000024903A000F0BEF8004810BD081000206D
:1022900043444320496E74657266616365000000C3
:1022A00004200880004870476401002010B50A46E9
:1022B000024903A000F0A6F8004810BD0810002055
:1022C00053544D6963726F656C656374726F6E69A8
:1022D0006373000010B50A46024903A000F092F8AB
:1022E000004810BD0810002053544D333220566969
:1022F000727475616C20436F6D506F7274000000D2
:1023000010B50A46024903A000F07CF8004810BD51
:102310000810002030303030303030303030314133
:1023200000000000F8B5044648880D46010A082957
:102330004BD2DFE801F04A0409174A4A4048D4F872
:102340001012207C0A6832E0207C02260028D4F893
:10235000140205D0C16A684688470146467041E0CC
:10236000816AF8E7C0B206282FD2DFE800F0030840
:102370000D12171CD4F81012207C4A6817E0D4F80C
:102380001012207C8A6812E0D4F81012207CCA68EF
:102390000DE0D4F81012207C0A6908E0D4F810127D
:1023A000207C4A6903E0D4F81012207C8A696946CF
:1023B0009047014616E0207C38B9D4F81402416BEE
:1023C00068468847F5E7207C20B129462046FFF77C
:1023D00002FFF8BDD4F81402016B68468847014635
:1023E00007204870BDF800000028F2D0EA88002AD3
:1023F000EFD0824200D90246ADF800202046FFF718
:102400000FFFF8BD70B5002300281DD0044600253D
:1024100002E06D1CEDB2641C2678002EF9D1022476
:1024200004EB45041480CC545B1C0322CA540024E2
:102430005B1C06E0CA545B1CDAB28C54521CD3B24B
:10244000401C0278002AF5D170BD10B580B1D0F8DB
:10245000143213B10023C0F8143209B1C0F81012BD
:10246000012180F8FC11027000F0C0F8002010BDBE
:10247000022010BD10B50024D0F82002FEF7C1FBE9
:1024800030B1012801D0022801D0022400E001244B
:10249000204610BD10B50024D0F82002FEF78FFBB7
:1024A00030B1012801D0022801D0022400E001242B
:1024B000204610BD2DE9F0411746044641B1D4F83D
:1024C000140242698AB394F8FC01032842D043E025
:1024D000D4F8F411002504F11400022933D1D0E915
:1024E00002639E4207D9F31A83609AB239462046A6
:1024F000FFF769FE12E04068B0FBF3F103FB110146
:10250000A1B9984212D3D4F8F81188420ED2002211
:1025100011462046FFF757FEC4F8F85100231A462B
:102520001946204600F0C7F80DE012E0D4F8140276
:10253000C16829B194F8FC01032801D120468847DD
:102540002046FFF762FE94F80002012804D184F8C7
:10255000005201E0204690470020BDE8F08170B5B0
:102560001546044641B1D4F8140282693AB394F88E
:10257000FC01032824D025E0D4F8F41104F582707E
:1025800003291FD1D0E902318B420BD95B1A83603A
:102590000846834200D303469AB229462046FFF7F5
:1025A0000AFE0FE0D4F81402016929B194F8FC0185
:1025B000032801D1204688472046FFF73EFE01E070
:1025C00020469047002070BD0020704710B50121C3
:1025D00080F8FC11D0F8142201795268904700204D
:1025E00010BDD0F82002FEF734BB000010B5017812
:1025F00061BB17490222C1F8EC03C0F820124FF06A
:10260000A0400860042048600020C1E90320C1E91F
:102610000502C861086201224862C1E90B20084630
:10262000FEF73CFE20B140F23D110AA000F01BFF76
:1026300080210748FEF782FA402200210448FEF775
:1026400081FA802201210248FEF77CFA002010BDA9
:10265000F40100202E2E2F5372632F757362645F76
:10266000636F6E662E6300000A0601F07F01D0F8EA
:102670002002C1EBC10100EB810002D590F83A00C5
:10268000704790F8FA0170470020704700207047AB
:1026900070B51D4613460024D0F820022A46FEF7E6
:1026A000E2FA30B1012801D0022801D0022400E072
:1026B0000124204670BD10B50024D0F82002FEF79A
:1026C000FCFA30B1012801D0022801D0022400E038
:1026D0000124204610BD70B5002204464023114657
:1026E000FFF7D6FF40252B46002280212046C4F864
:1026F0001051FFF7CDFF0120256284F8FC01D4F8CA
:10270000180228B1D4F81402217942682046904773
:10271000002070BD90F8FD1180F8FC11002070477A
:1027200010B590F8FC11032904D1D0F81412C9692E
:1027300001B18847002010BD01740020704710B51A
:102740000024D0F82002FEF75BFE30B1012801D052
:10275000022801D0022400E00124204610BD70B5FB
:10276000044600F50270054600F05FF80120C4F849
:10277000F401B4F80E02C4F8F80194F8082212F03B
:102780001F000AD001280DD0022810D002F08001CD
:10279000204600F011F8002070BD2946204600F0C8
:1027A000AAF8F8E72946204600F08CF9F3E7294615
:1027B000204600F019F9EEE710B50024D0F8200209
:1027C000FEF79FFA30B1012801D0022801D002247F
:1027D00000E00124204610BD10B50024D0F82002EE
:1027E000FEF727FE30B1012801D0022801D00224D3
:1027F00000E00124204610BD90F8FC1180F8FD1186
:10280000042180F8FC110020704710B50024D0F896
:102810002002FEF7A6FA30B1012801D0022801D02B
:10282000022400E00124204610BD0A7802704A7894
:1028300042708A78CB7802EB032242800A794B7986
:1028400002EB032282808A79C97902EB0121C180DF
:1028500070470246002011B1C2F8141270470220DE
:10286000704710B5D0F8142202241AB112689047AC
:1028700000B90024204610BD70B50D461A4E897867
:1028800004463170012928D894F8FC01022802D0AE
:10289000032822D105E099B10320616084F8FC018E
:1028A00009E091B1606888420AD0C1B22046FFF7C2
:1028B0007BFC317861602046FFF7D3FF02280CD003
:1028C0002046BDE87040FFF7B8BC022084F8FC0148
:1028D00020466160FFF768FCF2E729462046BDE824
:1028E0007040FFF778BC00000800002010B5FFF72B
:1028F00073FF002010BD2DE9F04100274A78012622
:102900003B460A2A43D2DFE802F03C5842514208D3
:1029100005422A27FFF706FD63E004468888C8B908
:10292000C888B8B9887800F07F0594F8FC010328BE
:1029300010D084F8FE5129462046FFF700FF2046BC
:10294000FFF77BFC1DB1022084F8FC0149E084F80C
:10295000FC6146E020461AE0FFF78EFF41E0CA889E
:10296000012A14D190F8FC21022A02D0032A0ED1A8
:1029700004E0012200F10801836014E00122011D3E
:1029800011E090F8FC21022A04D0032A02D0FFF7BC
:1029900022FC26E0C660D0F8041209B10321C16010
:1029A000022200F10C01FFF73BFC1AE004464888C4
:1029B000012816D1C4F804620BE0044690F8FC012B
:1029C000022801D00328C5D14888012809D1C4F8BC
:1029D0000432D4F814028268204690472046FFF75C
:1029E0002CFC3846BDE8F08170B50D4604462878C9
:1029F00000260979C0F34110012806D06878A0B3F9
:102A000001281FD003283FD107E0D4F8140229463B
:102A1000826820469047002070BD94F8FC0102288F
:102A200017D003282CD1688828B921B1802902D079
:102A30002046FFF7C1FED4F81402294682682046DA
:102A4000904713E094F8FC01022802D0032817D124
:102A500003E0C9B180291BD116E06888A0B94806F7
:102A600004D02046FFF706FDE5E703E02046FFF728
:102A7000E4FB09E094F8FC01022807D003280BD0FE
:102A800029462046FFF7A7FB304670BD4806FBD01D
:102A90002046FFF791FEF7E7080601F07F0004EB00
:102AA000001501D5143501E005F582752046FFF7C4
:102AB000DBFD00B101202860022229462046FFF7F5
:102AC000AFFBE1E770B5054690F8FC010C46032822
:102AD0000DD1207901280AD8D5F814028268284639
:102AE0009047E08830B92846FFF7A7FB02E0284668
:102AF000FFF771FB002070BD30B54C781D4B0122F3
:102B00000D78AA40012CD0F81C4818D044EA0242A3
:102B1000C0F81C280A7800EB4210D0F8002B1204F1
:102B20000BD4D0F8002B0C89C4F30A042243C978D3
:102B300043EA81410A43C0F8002B002030BD92B225
:102B40001443C0F81C480A7800EB4210D0F8004942
:102B50002404F2D4D0F800490D89C5F30A052C43AA
:102B6000C978890441EA82510C431C43C0F80049EA
:102B7000E3E7000000800010D0F800196FF30A01AD
:102B8000C0F80019D0F80818C1F34101022905D195
:102B9000D0F8001941F00301C0F80019D0F804186A
:102BA00041F48071C0F804180020704770B50446E5
:102BB000049D0D99069801280CD0E06840F0400073
:102BC000E060204600F028F84FF48030A063012D2B
:102BD00016D01DE0A06B20F48030A063E0680D4AA1
:102BE0001040E060E06820F44010E060012903D16B
:102BF000E06840F48010E060204600F00DF8E6E761
:102C0000A06840F00600A060A06840F02000A0602E
:102C1000002070BDBFFFBDFF00210B4A491C91423F
:102C20000AD80369002BF9DA0021036943F0010394
:102C30000361491C914201D9032070470369DB07F6
:102C4000F7D1002070470000400D0300F0B50D469D
:102C50000446002091F801C00126F306DF002C4A4B
:102C6000097804EB4111BCF1010F14D0D1F800CB6D
:102C70002CF4004CC1F800CB297804EB4111C1F8C9
:102C8000003B297804EB4111C1F8007B401C9042C5
:102C900026D90320F0BDD1F800C92CF4004CC1F8AE
:102CA00000C9297804EB4111C1F80039297804EBF7
:102CB0004111C1F80079401C9042EAD8297804EB10
:102CC0004111D1F808194900F5D41021204600F02F
:102CD00023FBD4F81C0829788E40B1B2884312E057
:102CE000297804EB4111D1F8081BC906CED4D4F8D9
:102CF000040840F48060C4F80408D4F81C0829785B
:102D00008E4020EA0640C4F81C080020F0BD0000F8
:102D1000400D030010B5D0F8041821F00201C0F8EE
:102D200004180320FDF770FD002010BD10B5D0F889
:102D3000041841F00201C0F804180320FDF764FDF7
:102D4000002010BD2DE9F0470D460446DDE90A1AC2
:102D50000027DDF83C80089E5FEA0800A06B11D0D8
:102D600040F40020A0634FF00009C4F8009ED4F89E
:102D70000008C4F80008012907D0D4F8000840F082
:102D8000030007E040F40010ECE7D4F800080BB1B2
:102D900040F00100C4F800081021204600F0BCFA01
:102DA000204600F0A9FA4A46C4F81098C4F81498CE
:102DB0004FF0FF30C4F81808C4F81C984FF0904347
:102DC0004FF0FF0C0FE004EB4710D0F8001900297A
:102DD00002DAC0F8003901E0C0F80029C0F8102973
:102DE000C0F808C97F1CBD42EDD800210FE004EBFC
:102DF0004110D0F8007B002F02DAC0F8003B01E060
:102E0000C0F8002BC0F8102BC0F808CB491C8D422D
:102E1000EDD8D4F8100820F48070C4F81008012E02
:102E20000AD11448C4F83008D4F8300812490843CD
:102E3000C4F83008D4F83008A2616FF080406061B7
:102E40001EB9A06940F01000A061A0690B490843B9
:102E5000A061BAF1000F03D0A06940F00800A061A2
:102E6000B8F1010F03D1A06905490843A061002012
:102E7000BDE8F087000180000300010000383C80BD
:102E800004000040816821F001018160002070474A
:102E900030B54D784D4C0B7800EB4313012D28D005
:102EA000D3F8105B6FF31205C3F8105B0B7800EBDF
:102EB0004313D3F8105B2540C3F8105B4B690BB18B
:102EC0008B684B610B7800EB4313D3F8104B44F441
:102ED0000024C3F8104B0B7800EB4313D3F8104BCE
:102EE0008D68C5F312052C43C3F8104B012A5BD043
:102EF00060E04D69002DD3F810593AD06FF31205F8
:102F0000C3F810590B7800EB4313D3F81059254040
:102F1000C3F810594C698B689C4200D94B610B78FF
:102F200000EB4313D3F8104944F40024C3F81049CC
:102F30000B7800EB4313D3F810494D69C5F3120524
:102F40002C43C3F810490B7800EB4313D3F8004926
:102F500044F00444C3F80049012A1ED04A6912B360
:102F6000D0F834280B78012199400A43C0F834285E
:102F700029E02540C3F810590B7800EB4313D3F830
:102F8000104944F40024C3F810490B7800EB4313B4
:102F9000D3F810496FF31204D3E70A69097800EBFC
:102FA0004110C0F814290EE00B7800EB4313CA68F7
:102FB000C3F8142B097800EB4110D0F8001B41F046
:102FC0000441C0F8001B002030BD0000FFFF07E0F7
:102FD0000023C0F8103BD0F8103B43F40023C0F8A6
:102FE000103BD0F8103B43F01803C0F8103BD0F86A
:102FF000103B43F0C043C0F8103B012905D1C0F895
:10300000142B4FF08021C0F8001B002070474B7834
:103010000A7800EB4212012B0BD0D2F8003B23F4CC
:103020000013C2F8003BCA78032A17D0022A15D031
:103030001DE0D2F8003923F40013C2F80039CA7831
:10304000032A01D0022A12D1097800EB4110D0F8EE
:10305000001941F08051C0F8001908E0097800EB30
:103060004110D0F8001B41F08051C0F8001B002037
:1030700070474B780A7800EB4212012B14D0D2F83B
:10308000003B002B05DBD2F8003B23F08043C2F865
:10309000003B097800EB4110D0F8001B41F400110F
:1030A000C0F8001B00207047D2F80039002B05DB68
:1030B000D2F8003923F08043C2F80039097800EBD8
:1030C0004110D0F8001941F40011C0F80019E9E7E7
:1030D00078B54E786FF06045834C0B7800EB431366
:1030E000012E2FD0D3F8106B6FF31206C3F8106BBC
:1030F0000B7800EB4313D3F8106B2640C3F8106B2A
:103100004B69002B7DD08C6823445B1EB3FBF4F32A
:103110009BB20C7800EB4414D4F8106B05EAC3455D
:103120002E43C4F8106B0C7800EB4414D4F8105BF9
:103130008E685E43C6F312031D43C4F8105B012A78
:1031400073D0B2E04E6966B3D3F810696FF312061C
:10315000C3F810690B7800EB4313D3F810692640CD
:10316000C3F810694C698B681C44641EB4FBF3F30C
:1031700005EAC3440B7800EB4313D3F810592C43F2
:10318000C3F810490B7800EB4313D3F810494D698D
:10319000C5F312052C43C3F81049CB78012B16D088
:1031A00027E0D3F810592540C3F810590B7800EBED
:1031B0004313D3F8104944F40024C3F810490B78A2
:1031C00000EB4313D3F810496FF312040FE00B78B0
:1031D00000EB4313D3F8104924F0C044C3F810495E
:1031E0000B7800EB4313D3F8104944F00054C3F8B4
:1031F0001049012A12D0CB78012B17D04B692BB381
:1032000000E037E0D0F834380D780124AC40234397
:10321000C0F83438CB78012B08D017E00C7800EBDD
:1032200044140B69C4F81439F4E738E0D0F80838CE
:10323000DB050B7800EB4313D3F8004902D444F0CC
:10324000005401E044F08054C3F800490B7800EBCF
:103250004313D3F8004944F00444C3F80049CB7841
:10326000012B3ED100928A8A93B20A78C96800F095
:10327000E7F836E00B7800EB4313D3F8104B8D687A
:10328000C5F312052C43C3F8104B0B7800EB431326
:10329000D3F8104B44F40024C3F8104B4FE70B78DD
:1032A00000EB4313CA68C3F8142BCA78012A0FD164
:1032B000D0F80828D2050A7800EB4212D2F8003B79
:1032C00002D443F0005301E043F08053C2F8003BC6
:1032D000097800EB4110D0F8001B41F00441C0F820
:1032E000001B002078BD0000FFFF07E0816841F06F
:1032F0000101816000207047002110220261054A0F
:10330000491C914201D9032070470369DB06F7D4B9
:1033100000207047400D03000022202343EA811162
:1033200001610549521C8A4201D903207047036993
:103330009B06F7D400207047400D03000021D0F811
:10334000082812F0060F15D0D0F80828C2F3410261
:10335000012A0CD0D0F80828C2F34102032A06D073
:10336000D0F80808C0F34100022802D002E003218F
:1033700000E0022108467047406900F001007047F4
:10338000D0F81818D0F81C08084080B27047D0F860
:103390001818D0F81C080840000C7047D0F81038F6
:1033A000D0F83428CA4002F0010243EAC21200EB0E
:1033B0004110D0F808091040704700EB4111D1F8D6
:1033C000081BD0F81408084070474169806908401C
:1033D000704710B504460023D21C900804F58054B1
:1033E00003E0226841F8042B5B1C8342F9D30846B2
:1033F00010BD10B5C26822F0C042C260012901D0E0
:1034000021B107E0C16841F0005102E0C16841F01C
:103410008041C1603220FDF7F7F9002010BDD0F8DF
:10342000002822F4FE62C0F80028D0F800284FF4EB
:10343000FE6303EA01110A43C0F800280020704728
:1034400030B50024039D65B9DB1C9B0800EB0230FE
:1034500000F5805003E051F8042B0260641C9C428C
:10346000F9D3002030BDFEE72DE9F04F634887B067
:103470000024016841F010010160016801F01001B1
:103480000591016841F004010160016801F0040147
:103490000591016841F080010160016801F080013F
:1034A0000591016841F001010160016801F001012D
:1034B0000591016841F002010160016801F002011B
:1034C0000591016841F0080101600068002200F0E8
:1034D0000800059008214A48FDF784FA01221146A8
:1034E0004848FDF77FFA4FF2100B00225946464834
:1034F000FDF778FA082601250096CDE901546946C2
:103500003F480394FDF78EF90095CDE901546946D3
:103510003C480394FDF786F900960226CDE9016444
:103520000527CDE9034769463648FDF77BF9DFF803
:10353000DC900095DFF8D880CDE9019469464046DB
:10354000FDF770F910200090CDE901644FF0060AF4
:10355000CDE9034A69464046FDF764F9E020009052
:10356000CDE90164CDE9034769464046FDF75AF9C4
:103570004FF00408CDE90084694626480294FDF71F
:1035800051F9A8020090CDE90164CDE903476946ED
:103590002048FDF747F9CDF800B0CDE90154694660
:1035A00019480394FDF73EF94FF4A4500090CDE97B
:1035B0000164CDE9034A69461248FDF733F920203A
:1035C000CDE90004694610480294FDF72BF94FF449
:1035D000107000901220CDE90105CDE9034869463D
:1035E0000C48FDF71FF90096CDE90194694604489F
:1035F000FDF718F907B0BDE8F08F00003038024041
:103600000010024000080240000C024000001210AE
:10361000000002400004024010B5134888B0114970
:103620000024C0E9001443F21901C0E90241046119
:103630004461FEF7FAF900B1FEE706200090102081
:10364000019069460848FEF79BFA00B1FEE7059431
:1036500005A905480694FEF7C0F9002800D0FEE74A
:1036600008B010BD000001407C01002010B51348D7
:103670008CB011490024C0E900148460C460046166
:103680000120CDE90004CDE902040494CDE9054010
:103690000794694609480894FEF7F6F900B1FEE779
:1036A000099409A905480A94FEF797F9002800D063
:1036B000FEE70CB010BD000000040040B80100207F
:1036C0002DE9F84304460D4608784978042640EA77
:1036D0000120A97840EA0140E97840EA0167606882
:1036E000B84204D2B900E068FCF738FEE060002080
:1036F0008146676010E0A919AA5D4B7842EA03226F
:103700008B78C97842EA034242EA0161A160E2682B
:1037100042F82010401C361D61688142EBD8A81980
:10372000A95D4278361D41EA02218278C07841EADB
:10373000024141EA00672069B84204D2B900A06999
:10374000FCF70CFEA0610020276111E0A919AA5D19
:103750004B7842EA03228B78C97842EA034242EA74
:1037600001616161D4E9052141F82020401C361D2A
:1037700021698142EAD8A819A95D4278361D41EA3B
:1037800002218278C07841EA024141EA0067E0699B
:10379000B84204D2B900606AFCF7E0FD6062E761FC
:1037A00000271FE0A919684600F028FC361DB04626
:1037B00004E0A85DA919761C01F8010C00984044AA
:1037C000B042F6D8009905EB080041442944401E58
:1037D00001F8019C2062009908EB0106616A41F83A
:1037E00027007F1CE069B842DCD83046BDE8F8838A
:1037F00000487047EC40000800487047424000080D
:10380000004870470D410008004870472E410008ED
:103810000048704741410008004870476241000875
:1038200010B5064B0A68B2FBF3F403FB1424B2FB99
:10383000F3F203681A4402600C6010BD00CA9A3BA0
:103840000A7842604B7842EA032242608B7842EA6F
:1038500003424260CB7842EA036242600B790A1D60
:103860008360497943EA01218160937841EA034109
:103870008160D27841EA02618160082070470000CF
:1038800000487047B541000800487047D64100081D
:1038900002490022C0E9001282607047C44000085B
:1038A00000487047E441000800487047054200089E
:1038B0002DE9F041044600790870A0880426000A2A
:1038C000487060680D46000C88706068000EC87013
:1038D00000200CE0E168AA1951F82010A9550B0A44
:1038E00053700B0C090E9370401CD170361D61682B
:1038F0008142EFD8207CA855208A010AA81941707E
:103900002169090C81702169090EC17000200BE04A
:10391000A169AA1951F82010A9550B0A53700B0C74
:10392000090E9370D170401C2169361D8142EFD879
:10393000207FA855A08B0027010AA8194170E169D2
:10394000090C8170E169090EC170361D13E0606ACF
:1039500050F82700FCF75EFD8046A819414600F0AC
:103960005AFB606A361D424650F82710A819FCF72A
:1039700070FD46447F1CE069B842E8D83046BDE897
:10398000F08170B50546007908700C46A868FCF710
:1039900041FD0646601C314600F03DFB601D32468D
:1039A000A968FCF756FD701D70BD2DE9F041054674
:1039B00000790870A8880C46000A4870A868FCF7CF
:1039C00029FD0646A01C314600F025FBA01D32460D
:1039D000A968FCF73EFDB61DE868FCF71BFD07462D
:1039E000A019394600F017FB361DA0193A46E968C0
:1039F000FCF72FFD3E442869FCF70CFD0746A01993
:103A0000394600F008FB361DA0193A462969FCF733
:103A100020FDF0196969221821540B0A53700B0C10
:103A2000090E9370D170001DBDE8F08102790A7013
:103A30008288120A4A704268120C8A704268120E1A
:103A4000CA70027A0A710289130A0A1D4B718168D1
:103A5000090C91708068000ED0700820704770B516
:103A600005460C464068FCF7D5FC06462046314624
:103A700000F0D1FA201D32466968FCF7EAFC301DDF
:103A800070BD0000054A4FF0FF30D2E90031994285
:103A900003D00348405C491C51607047200100205E
:103AA000E4090020ADF5156DFCF7B0FFFEF712F943
:103AB000FFF7DAFCFEF786F8FFF7D8FDFFF7ACFD5D
:103AC000684600F05BFA2348CDF844092248CDF857
:103AD0004809002021A20DF64411CDF8E008CDF8E8
:103AE000E408CDF83029CDF83419CDF84009CDF8E7
:103AF000EC08CDF8E80869460DF5136201EB800388
:103B0000D3F81838BBB1401C1928F7DB15A0CDF845
:103B10004809DDF83C090DF64412DDF83819036850
:103B20001B689847684600F0FDF81048FEF7C2FA97
:103B30000F4800210AE001EB80037D30C3F818280C
:103B4000C2E90201E2E7401E41F1FF3150EA010201
:103B5000DCD0F8E7DC4000081542000863686174B7
:103B60007465720068656C6C6F000000E40D0020E5
:103B700080FC0A00F0B587B005463048009000216F
:103B80002F48ADF8041002900F464FF48066039062
:103B9000CDE9040105EB8704D4F81808E8B10089E1
:103BA000ADF80400D4F8180800680290D4F818089A
:103BB00004F6180440680168896888470390206803
:103BC00040680168C9688847CDE9040620686A46EC
:103BD000016928680368284698477F1C192FD9DB9C
:103BE000002705EB8704D4F87C08F0B18088ADF895
:103BF0000400D4F87C0880680290D4F87C0804F6AD
:103C00007C04016889688847039020680168C96856
:103C10008847CDE90406206801684968884701465D
:103C200028686A460368284698477F1C192FD8DB06
:103C3000012085F8F40807B0F0BD000098400008A6
:103C40007B4100083EB504466846FFF721FE206828
:103C50006A460A2103682046984702480068E060E7
:103C60003EBD0000400100203EB50D4604466429DB
:103C700003DB94F8F40800283ED0106804F21F41DA
:103C800003681046984782B2FF2084F81804FE208B
:103C900084F8190484F81A24100A84F81B041044C8
:103CA000C0B2C0F1FF0084F81C0484F81D5428122F
:103CB00084F81E0400210520D21D04E02318401CB6
:103CC00093F8183419449042F8DB90B2CA1701EB0C
:103CD000126222F0FF02891A2218401CC1F1FF0172
:103CE00085B282F81814B5F5806F06D804F58360A4
:103CF0002946FCF773FD28463EBD08490322084BC0
:103D000000938DF804200291216820466A460B68D2
:103D1000072198474FF0FF303EBD00007C4100086E
:103D2000804000082DE9FE4FDFF840920446D0F8AD
:103D3000FC08D9F8005042F6F821281A00268842DB
:103D400001D984F8F468D4F8E00828B1D4F800095F
:103D5000A84201D2C4F8E0684FF0080ADFF810B2B8
:103D600004F11808FFF78EFE002811DA94F8F40821
:103D700058B1D4F8F80840F6C411281A884204D97A
:103D80002046FFF75FFFC4F8F8580020BDE8FE8F1B
:103D9000D4F8F0180A18C4F8F028D4F8E018072965
:103DA00028D0A1B301294BD0022957D003295BD0D9
:103DB000042963D005296AD0062971D00829D1D1F8
:103DC00002EA0B02C4F8E068FF2ACBD1D4F8E80875
:103DD000A8B30A2872D0062871D00B2870D004EB43
:103DE0008000D0F8EC060028BCD001680A68414683
:103DF0009047B7E7D4F8EC184A1CC4F8EC2801F84F
:103E00000800D4F8E408401EC4F8E40853E002E0D7
:103E1000C4F8E0A8A6E7FF2809D0D9F80000401BA5
:103E200005289FD984F8F4686FF00100AEE70120FF
:103E3000C4F8E00805F11400C4F8000992E740E076
:103E4000FE2809D0C4F8E06894F8F408002889D165
:103E50002046FFF7F7FE85E702200CE0C4F8EC6887
:103E60000321C4F8E40815E0D4F8E41801EB0020BD
:103E7000C4F8E4080420C4F8E00873E702EA0B027F
:103E8000FF2A02D0C4F8E0686CE70520F3E70621BA
:103E9000C4F8E808C4F8E018C4F8F00862E7FFE7DF
:103EA000D4F8E81801EB0020C4F8E8080720C4F8AB
:103EB000E008D4F8E40800289BD1A9E70EE048E028
:103EC00050E02046FFF7BEFE2046FFF753FEC4F841
:103ED000F8584FF0FF30C4F8FC5857E76846FFF732
:103EE000D7FCD9F80000E168471A41466846FFF759
:103EF000A7FC4FF47A73B7FBF3F0019908440190E3
:103F0000B7FBF3F003FB107043F6095148430299E5
:103F1000019F01EB80100290D9F80020B2FBF3F171
:103F2000791A491E2161B2FBF3F103FB1121114AF9
:103F30005143114A02EB8111029A1144616104F16B
:103F40001401081FFFF76CFCD9F80000C4F8FC0846
:103F500008E7414604F60810FFF7B2FB012084F899
:103F60000409FFE684F8F468FCE600004001002044
:103F7000FF000080F7C2FFFF00CA9A3B10B54FF464
:103F8000614282601B490160002200F6081180F83E
:103F9000F428194BC1E90032CA600A618A61CA611A
:103FA0004A62114600EB8103491CC3F818281929FD
:103FB000F8D3002100EB8103491CC3F87C281929A0
:103FC000F8D300214FF480634418491C22769942AB
:103FD000FAD300214418491C84F818249942F9D3D3
:103FE000C0F80C29C0F81429C0F81829C0F82029F5
:103FF00010BD0000B04000086840000810B5002265
:1040000002608B5CD400A3400468521C234303600D
:10401000042AF6D310BD0022D30021FA03F38354FF
:10402000521C042AF8D370474FF04070E1EE100A9A
:1040300070470000000000000000010203040607B2
:104040000809726F7373657269616C5F6D73677372
:104050002F52657175657374506172616D00000057
:104060000000000000000000B1380008C136000860
:10407000F9370008F13700080000000000000000D8
:1040800083390008000000000938000801380008E2
:104090000000000000000000AB3900080000000034
:1040A0001938000811380008000000000000000066
:1040B000693C0008253D00080000000000000000E9
:1040C000000000002D3A0008413800088938000837
:1040D0008138000800000000000000005F3A00087E
:1040E00000000000A9380008A138000839663065D2
:1040F0003938626461363539383139383664646646
:10410000353361666137613430653439003131618E
:104110006264373331633235393333323631636475
:104120003631383362643132643632393500726F79
:104130007373657269616C5F6D7367732F4C6F6722
:10414000003061643531663838666334343839326A
:1041500066386331303638343037373634363030BD
:104160003500726F7373657269616C5F6D7367732D
:104170002F546F706963496E666F00004D657373ED
:104180006167652066726F6D20646576696365207E
:1041900064726F707065643A206D657373616765F2
:1041A000206C6172676572207468616E206275664A
:1041B0006665722E00636437313636633734633593
:1041C0003532633331316662636332666535613738
:1041D0006263323839007374645F6D7367732F5490
:1041E000696D650039393263653861313638376356
:1041F00065633863386264383833656337336361C5
:1042000034316431007374645F6D7367732F53745A
:1042100072696E670000000038420008000000204C
:104220007C010000C4010008FC4200087C01002061
:10423000EC04010020020008519324F4130A063212
:10424000023340011409024313020125C03209045C
:104250001B01020B1305241610010524011009018E
:10426000042402020524061701070582030815101D
:1042700009040133020A1D07050102432C070581C9
:10428000070938442A40072A8107112B0907440AE5
:104290002204440A16FF44132D2014089D1F1408FD
:1042A000092142081AD90C1A5B041A6F04C11A15A5
:1042B000281A09041A2104AAFD1C33C2011208138A
:1042C00075071B0871041A3D041A990481137122A1
:1042D0001B08A1041AAD041AD5041301231B0851AD
:1042E000081A7D041E0403090412971302021E40DB
:0C42F00083044057CD1B02034F00000068
:040000050800018965
:00000001FF
