:020000040800F2
:1000000078D600203D5C0008455C0008475C00088D
:10001000495C00084B5C00084D5C000800000000D3
:100020000000000000000000000000004F5C00081D
:10003000515C000800000000535C0008717100086A
:10004000575C0008575C0008575C0008575C0008C4
:10005000575C0008575C0008575C0008575C0008B4
:10006000575C0008575C0008575C0008575C0008A4
:10007000575C0008575C0008575C0008575C000894
:10008000575C0008575C0008575C0008575C000884
:10009000575C0008575C0008575C0008575C000874
:1000A000575C0008575C0008575C00087F71000827
:1000B000575C0008575C0008575C0008575C000854
:1000C000575C0008575C0008575C0008575C000844
:1000D000575C0008575C0008575C0008575C000834
:1000E000575C0008575C0008575C0008575C000824
:1000F000575C0008575C0008575C0008575C000814
:10010000575C0008575C0008575C0008575C000803
:10011000575C0008575C0008575C0008575C0008F3
:10012000575C0008575C0008575C0008575C0008E3
:10013000575C0008575C0008575C0008575C0008D3
:10014000575C0008575C0008575C0008F77100080E
:10015000575C0008575C0008575C0008575C0008B3
:10016000575C0008575C0008575C0008575C0008A3
:10017000575C0008575C0008575C0008000000004E
:10018000575C0008575C000800F002F800F060F8C7
:100190000AA090E8000C82448344AAF10107DA45E2
:1001A00001D100F055F8AFF2090EBAE80F0013F0D4
:1001B000010F18BFFB1A43F001031847F8AA00000B
:1001C00018AB00000A444FF0000C10F8013B13F08C
:1001D000070408BF10F8014B1D1108BF10F8015BA0
:1001E000641E05D010F8016B641E01F8016BF9D193
:1001F00013F0080F1EBF10F8014BAD1C0C1B09D1EA
:100200006D1E58BF01F801CBFAD505E014F8016B5B
:1002100001F8016B6D1EF9D59142D6D370470000ED
:100220000023002400250026103A28BF78C1FBD8FF
:10023000520728BF30C148BF0B6070471FB50AF096
:100240001AF99DE8030007F0EBFB1FBD10B510BDC8
:1002500007F052FC1146FFF7F1FF06F065FA07F0D0
:1002600070FC03B4FFF7F2FF03BC07F0A1FC000031
:100270007047F0B58BB004004FF0000755D0032055
:1002800084F8B903204606F0E5FC206801F06DFB18
:1002900004F1100128220E46684607F049FB94E855
:1002A0000F0001F028FB0021206801F064FB01250C
:1002B0000022C7EBC70004EB800080F8395000F83B
:1002C000387FC780C2708260C2607F1C42610F2F7E
:1002D000EFD300204FF48273C0EBC00104EB810127
:1002E00003EB800781F8F92181F8F801C88781F8CC
:1002F000FB21C1F80022C1F80422C1F80C222168B8
:10030000CA51401C0F28E7D328223146684607F01F
:100310000FFB94E80F0001F069FB84F8B9532068E3
:1003200002F002F800200BB0F0BD0120FBE770479F
:1003300010B5044690F8B80301280FD0012084F8C6
:10034000B803206801F011FB206801F0AFFF2068BE
:1003500001F0EAFF002084F8B80310BD022010BDB0
:1003600010B504000CD0032084F8B9032046FFF731
:10037000DFFF204606F0A5FC002084F8B90310BD7D
:10038000012010BD10B5044690F8B80301280CD028
:10039000012084F8B803206801F0BAFF206801F05A
:1003A000DEFA002084F8B80310BD022010BD7047AB
:1003B0007047704770477047704770477047704785
:1003C000704770472DE9F84F06680446002530460F
:1003D00001F0E3FF002873D1206801F0B1FF00288D
:1003E0006ED0206801F0ACFF800704D52068416919
:1003F00001F002014161206801F0A2FF010304F550
:100400006F704FF001094FF0080A4FF0100B009089
:100410004BD5206801F098FF074644E0F80740D02C
:10042000E9B2206801F09EFF8046C00728D006EBA5
:100430004511C1F8089B2069012811D1C5EBC50001
:1004400004EB8000D1F8101BD0F80022C1F3120198
:10045000511AC0F81012D0F804121144C0F8041256
:10046000E9B2204606F049FC2069012808D13DB9CF
:10047000D4F80C0220B920680121009A01F0ABFFEA
:100480005FEA087006D5204606F030FC06EB451101
:10049000C1F808AB5FEAC86003D506EB4511C1F8A7
:1004A00008BB7F086D1C002FB8D1206801F048FF01
:1004B00040035BD5206801F04EFF8046002552E0E6
:1004C000CEE15FEAC8704BD0E9B2206801F052FF7C
:1004D0000746C00724D0D6F8341809FA05F081433E
:1004E000C6F8341806EB4510C0F8089920690128B1
:1004F00007D1C5EBC50004EB8000D0E91021114401
:100500004164E9B2204606F002FC2069012807D1C7
:1005100035B9E06C20B920680121009A01F05BFF39
:10052000380703D506EB4511C1F808A9F80603D52D
:1005300006EB4511C1F808B9780604D506EB45115C
:100540004020C1F80809B80704D506EB4511022080
:10055000C1F80809380603D52946204600F001FBFA
:100560004FEA58086D1CB8F1000FAAD1206801F0BD
:10057000E7FE00280DDAD6F8040820F00100C6F8DE
:100580000408204606F0F6FB2068416901F00041AE
:100590004161206801F0D4FE00050BD5D6F80808AB
:1005A000C00702D0204606F0CFFB2068416901F465
:1005B00000614161206801F0C3FEC0044BD5D6F84C
:1005C000040820F00100C6F804081021206801F09A
:1005D000F6F90020FF2206E006EB4011C1F80829D9
:1005E000C1F8082B401C61688142F5D84FF0FF30FC
:1005F000C6F81808D6F81C0840F00110C6F81C0808
:10060000206B60B1D6F8840840F00B00C6F884086F
:10061000D6F8440840F00B00C6F844080BE0D6F8C2
:10062000140840F00B00C6F81408D6F8100840F083
:100630000B00C6F81008D6F8000820F4FE60C6F8D3
:100640000008217C2068009A01F0C5FE20684169FD
:1006500001F480514161206801F072FE80047DD573
:10066000206801F09EFE2068C16821F47051C160CD
:10067000206801F054FA78B10320E0604020606106
:1006800001F028F8F749F84A014491420AD220685B
:10069000C16841F4705158E00020E0604FF40070F0
:1006A000606136E0F149F24A0144914204D2206887
:1006B000C16841F4605148E0EE49EF4A014491427B
:1006C00004D22068C16841F450513EE0EB49EC4A45
:1006D0000144914204D22068C16841F4405134E0A1
:1006E000E849E94A0144914204D22068C16841F4D2
:1006F00030512AE0E549E64A0144914204D220689B
:10070000C16841F4205120E0E249E34A01449142AA
:1007100004D22068C16841F4105116E0DF49E04A74
:100720000144914204D22068C16841F400510CE0B8
:10073000DC490844DC4988422068C16803D241F49E
:10074000E05102E00AE041F4C051C160204606F0E9
:10075000EBFA2068416901F400514161206801F021
:10076000EFFDC00636D52068816921F01001816156
:10077000D6F8208008F00F00C0EBC00004EB800723
:10078000C8F3434007F5FC77022802D0062812D0B0
:100790001BE047F6F07118EA010F16D0C8F30A12F1
:1007A00090463046F96801F010FDF8684044F86062
:1007B000B869404408E008223046009901F005FD80
:1007C000B969C8F30A100844B8612068816941F02A
:1007D00010018161206801F0B3FD000707D52046B4
:1007E00006F09EFA2068416901F008014161206825
:1007F00001F0A6FDC00208D5E9B2204606F0C2FA13
:100800002068416901F480114161206801F098FD80
:10081000800208D5E9B2204606F0B0FA20684169A6
:1008200001F400114161206801F08AFD400007D504
:10083000204606F0ABFA2068416901F08041416131
:10084000206801F07DFD40070AD5206845686807EB
:1008500002D5204606F09EFA20684168294341608F
:10086000BDE8F88F10B5044690F8B803012809D008
:10087000012084F8B803206801F04AFD002084F8C4
:10088000B80310BD022010BD10B5044690F8B8039F
:10089000012809D0012084F8B803206801F044FD44
:1008A000002084F8B80310BD022010BD10B5044626
:1008B00090F8B803012809D0012084F8B803206813
:1008C00001F015FD002084F8B80310BD022010BD12
:1008D00070B504460D460E0601F07F00C0EBC00166
:1008E00004EB810101D5383101E001F5FC71ED091E
:1008F00008704D708A60CB7000D0C8800025022B34
:1009000000D10D7194F8B803012809D0012084F8B2
:10091000B803206801F021F9284684F8B85370BD67
:10092000022070BD10B504460A460B0601F07F0098
:10093000C0EBC00104EB810101D5383101E001F5C4
:10094000FC710870D009487094F8B803012809D0E8
:10095000012084F8B803206801F0B4F9002084F87D
:10096000B80310BD022010BD70B50D4601F07F0424
:10097000C4EBC40100EB8101C1F80C32C1F80422C0
:100980000023C1F8103281F8F93181F8F841036988
:1009900001F5FC71012B00D10A616A06027C006836
:1009A00003D001F064FA002070BD01F06BFBFAE7A0
:1009B00001F00F01C1EBC10100EB8100B0F81002A2
:1009C00080B2704770B50D4601F07F04C4EBC401DE
:1009D00000EB8101CB644A6400230B65012381F89D
:1009E000393001F8384F0369012B00D10A616A06DA
:1009F000027C006803D001F03AFA002070BD01F0DB
:100A000041FBFAE770B50D460446090605F07F0084
:100A100005D5C0EBC00104EB8101383105E0C5EB21
:100A2000C50104EB810101F5FC7101228A70087097
:100A3000E809487094F8B803012807D084F8B8236F
:100A4000206801F0D2FB680602D007E0022070BDEA
:100A5000217C04F56F72206801F0BDFC002084F851
:100A6000B80370BD405327FF00350C00401E1BFF2C
:100A700040420F0000DC0BFF804F1200808CF9FE1B
:100A800020D6130060B6E5FE60E3160000D3CEFE6C
:100A900040771B00C05BB3FEC091210000CA91FEED
:100AA00020753800E05459FEE09C410070B50A46BC
:100AB0000446090602F07F0005D5C0EBC00104EB37
:100AC0008101383105E0C2EBC20104EB810101F57F
:100AD000FC7100258D700870D009487094F8B80337
:100AE000012809D0012084F8B803206801F0ACFB8C
:100AF00084F8B853002070BD022070BD10B50446C4
:100B000090F8B80301280AD0012084F8B803080639
:100B100007D501F07F01206800F051FF04E00220BA
:100B200010BD206800F03DFF002084F8B80310BD20
:100B30000068D0F80818C90705D0D0F8041841F0AB
:100B40000101C0F80418002070470068D0F80418AC
:100B500021F00101C0F804180020704790F8B90393
:100B600070472DE9F84F0E46C1EBC60100EB81043A
:100B70008146D0F80080D4E91301451A206C38343E
:100B8000A84200D20546E81C870808EB461A15E083
:100B9000451AA068A84200D20546E81C870899F8C3
:100BA00010000090ABB2F2B24046E16801F04CF99F
:100BB000E0682844E060A0692844A061DAF81809D8
:100BC00080B2B84205D9D4E90501814201D200289A
:100BD000DED135B90120D8F83418B0408143C8F8C7
:100BE000341800203CE60000974A00F00701106826
:100BF0004FF6FF03184040EA012094490843106073
:100C00007047F0B4904B1B68C3F30223C3F1070491
:100C1000042C00D904241D1D072D01D2002300E05F
:100C2000DB1E012606FA04F56D1E0D409D409E4018
:100C3000761E164045EA0601F0BC00F0F4B800F05C
:100C40001F02012191404009800000F1E020C0F81E
:100C50000011704700F01F020121914040098000FF
:100C600000F1E020C0F880117047BFF34F8F764845
:100C70000168764A01F4E061121D11430160BFF37F
:100C80004F8F00BFFDE710B5401EB0F1807F01D34C
:100C9000012010BD4FF0E02460610F21601700F0CB
:100CA000C2F80020A06107202061002010BDBFF322
:100CB0005F8F65481830016821F480310160624916
:100CC00000208831086070475F4940F0010088319A
:100CD00008605D481830016841F480310160BFF35D
:100CE0004F8FBFF36F8F7047574A41788C32116036
:100CF0000378111D0A1DE3B143680B60017BC37AC1
:100D0000090741EA0361837A41EAC341437B41EA2F
:100D10008341837B41EA4341C37B41EA0341437AF8
:100D200041EA0321037A007841EA4301014311605B
:100D30007047002008601060704743480068C0F3A7
:100D400002207047F0B5002806DA00F00F0000F12D
:100D5000E02090F8140D03E000F1E02090F800048A
:100D6000040901F00700C0F10701042900D904219A
:100D7000051D072D01D2002000E0C01E012724FA26
:100D800000F607FA01F56D1E2E4007FA00F56D1EFC
:100D9000254016601D60F0BD00F01F02012191404A
:100DA0004009800000F1E020C0F8001270474109BE
:100DB000890001F1E021D1F8001200F01F020120AA
:100DC0009040014201D0012070470020704700F0A0
:100DD0001F02012191404009800000F1E020C0F88D
:100DE000801270474109890001F1E021D1F8001318
:100DF00000F01F0201209040014201D00120704705
:100E0000002070474FF0E0210428086903D020F04B
:100E100004000861704740F00400FAE7704710B51D
:100E2000FFF7FCFF10BD0907090E002806DA00F0E5
:100E30000F0000F1E02080F8141D704700F1E02061
:100E400080F80014704700000CED00E00000FA0587
:100E50002DE9F84FDFF8D892002209F1040A0AF1CF
:100E6000040B4FF00F080BF1040E01260B6896409F
:100E70003340B34271D14C68022C01D0122C11D1F5
:100E8000D40800EB84073D6A5407E40E08FA04FC1A
:100E900025EA0C05D1F810C00CFA04FC4CEA050C4C
:100EA000C7F820C007685400032591F804C0A54086
:100EB0000CF0030CAF430CFA04FC4CEA070CC0F82E
:100EC00000C04F68012F05D0022F03D0112F01D091
:100ED000122F11D18768D1F80CC0AF430CFA04FC73
:100EE0004CEA070CC0F808C04768B7430E79C6F350
:100EF000001696403E434660C668AE438D68A540E6
:100F00003543C5604C68E40065D58A4C256845F4D6
:100F100080452560246822F0030504F48044009491
:100F2000854C2E19D6F808789407250F08FA05F491
:100F3000A743824CA04201D1002424E0804CA0426F
:100F400001D101241FE07F4CA04201D102241AE00C
:100F50007D4CA04202D1032415E03CE07B4CA04232
:100F600001D104240FE07A4CA04201D105240AE00B
:100F7000784CA04201D1062405E0774CA04201D173
:100F8000072400E00824AC403C43C6F80848D9F8E0
:100F900000404D464E689C43F60300D51C432C6030
:100FA000DAF8004055464E689C43B60300D51C4312
:100FB0002C60DBF800405D464E689C43F60200D58D
:100FC0001C432C60DEF8004075464E689C43B60218
:100FD00000D51C432C60521C102AFFF446AFBDE81C
:100FE000F88F2DE9F04FDFF850B100224FF0010AE1
:100FF0004FF00F080AFA02F501EA0503AB4268D187
:10100000066857000324BC40A6430660D60800EBE0
:101010008606D6F820C057074FEAD76908FA09F7BD
:101020002CEA070CC6F820C08668A643866046688E
:10103000AE434660C568A543C56022F003055D4424
:10104000D5F808489607370F08FA07F606EA040CA1
:101050003A4CA04201D1002423E0394CA04201D1F6
:1010600001241EE0374CA04201D1022419E0364C85
:10107000A04201D1032414E0344CA04201D1042445
:101080000FE0334CA04201D105240AE0314CA042CC
:1010900001D1062405E0304CA04201D1072400E034
:1010A0000824BC40644514D1D5F80848B443C5F8B9
:1010B00008481F4C25689D432560241D25689D43D5
:1010C0002560241D25689D432560241D25689D43BA
:1010D0002560521C102A8DD3BDE8F08F00690840AE
:1010E00000D0012070470AB1816170470904FBE715
:1010F00042694A404261704708B541F4803200922B
:10110000C261C1610099C161C1690091C069C00338
:1011100001D5002008BD012008BD7047044910B565
:1011200014310A68024202D00860FFF7F6FF10BDD2
:10113000003C0140443802400030014000000240C1
:101140000004024000080240000C0240001002406F
:101150000014024000180240001C024070472DE9B4
:10116000F84F04460078DFF8E0A3F84DC00748D0F8
:10117000DAF800105046C1F38101012908D0006857
:10118000C0F3810002280AD1281D0068400206D55C
:101190002868800335D56068002870D031E0606829
:1011A000B0F5803F10D0B0F5A02F286810D020F403
:1011B00080302860286820F4802028606068A0B112
:1011C00001F084FC06460CE0286840F48030F4E727
:1011D00040F480202860F7E701F078FC801B642849
:1011E00073D828688003F7D50BE001F06FFC064642
:1011F00004E001F06BFC801B6428F1D828688003B0
:10120000F7D42078DFF8488380074FF0010B4FF0C8
:10121000000943D5DAF80010504611F00C0F4FF0DA
:10122000F80709D00068C0F3810002280BD1C64836
:10123000001F0068400206D42868800713D5E068C4
:1012400001281CD10FE0E068D0B1C8F800B001F06F
:101250003DFC064604E001F039FC801B0228BFD8A3
:1012600028688007F7D5286897FAA7F22169B2FAAB
:1012700082F220F0F8009140084328600EE0EBE095
:10128000C8F8009001F022FC064604E001F01EFCC4
:10129000801B022819D828688007F7D42078000717
:1012A00022D5A94FAB4861696C3779B1C0F800B05D
:1012B00001F00CFC064604E001F008FC801B02284B
:1012C00003D838688007F7D50EE089E0C0F80090B1
:1012D00001F0FCFB064604E001F0F8FB801B02284D
:1012E0007ED838688007F7D42078400750D59648D4
:1012F0003830016841F0805101600068964F00F07D
:1013000080500090386840F48070386001F0DEFB57
:10131000064604E001F0DAFB801B022860D838683A
:10132000C005F7D5884FA068683701280FD0052879
:10133000386810D020F001003860386820F00400D0
:101340003860A068B0B101F0C1FB06460EE0386815
:1013500040F00100F4E740F004003860F7E701F0E6
:10136000B5FB811B41F2883081426DD83868800717
:10137000F5D50DE001F0AAFB064606E001F0A6FB5C
:10138000811B41F2883081425ED838688007F5D4ED
:10139000A06930B3DAF80010C1F3810102295BD0F3
:1013A0000228484605D0C8F8600001F08FFB0446CB
:1013B0004DE04746C8F8600001F088FB064604E0AF
:1013C00001F084FB801B02283ED828688001F7D4F6
:1013D000D4E9070147F6C072084392FAA2F201E08D
:1013E00032E037E0616AB2FA82F29140A26A4FF0CD
:1013F000FF3303EB52024FF4403393FAA3F3B3FAF3
:1014000083F39A40114308434FF0706292FAA2F2BC
:10141000E16AB2FA82F2914008434B49091F086021
:10142000C7F860B001F052FB044604E001F04EFB47
:10143000001B022808D828688001F7D50AE001F0CF
:1014400045FB001B022802D90320BDE8F88F28685D
:101450008001F4D40020F8E70120F6E730B53A48DF
:10146000006810F00C013D4812D0441004290ED041
:1014700008290DD1344A121F1168136801F03F0189
:101480005D0247F6C07304D5B4FBF1F003E02046DB
:1014900030BDB0FBF1F01168194093FAA3F3B3FA31
:1014A00083F3D940484311684FF4403292FAA2F2D4
:1014B00001F44031B2FA82F2D140491C4900B0FB3C
:1014C000F1F030BD2DE9F047DFF8949004460E4668
:1014D000D9F8000000F00F01F0B28046B14207D207
:1014E00089F80000D9F8000000F00F00B0427DD16B
:1014F0002078154F800705D53868A16820F0F000E6
:10150000084338602078C00763D060680F4901281D
:1015100028D0022829D0032827D009688907002964
:1015200067DA396821F003010143396001F0CEFA2E
:101530000546606841F2883101281FD002282AD070
:1015400003288A4633D040E0083802400038024081
:1015500000004742800E4742007000400024F40023
:10156000003C024009688903D9E709688901D6E788
:1015700001F0ACFA411B514501D923E08A46386895
:10158000C0F381000128F3D123E001F09FFA411B51
:10159000514501D916E08A463868C0F38100022817
:1015A000F3D116E001F092FA411B51450AD8386890
:1015B000C0F381000328F5D10BE001F087FA411B4D
:1015C000514502D90320BDE8F087386810F00C0FB0
:1015D000F3D1D9F80010484601F00F01B1420AD901
:1015E00080F80080006800F00F0000E001E0B042E9
:1015F00001D00120E7E72078400705D53868E16889
:1016000020F4E050084338602078000706D5386899
:10161000216920F4604040EAC1003860FFF71EFFF6
:101620003968F02292FAA2F201F0F001B2FA82F2E5
:10163000D1408A4A515CC84089490860002001F0C5
:10164000FEF90020BFE7F0B5864E15460C46854BE7
:10165000002102220327283E0028186887B019D0ED
:1016600040F004001860186800F0040005901002B3
:101670000090CDE90121CDE9037169467A48FFF771
:10168000E7FB306844EAC50120F078400843306049
:1016900007B0F0BD40F001001860186800F00100CC
:1016A00005904FF480700090CDE90121CDE90371E0
:1016B00069466E48FFF7CCFB30682C4320F0EC60A5
:1016C0002043E4E76A490120C86470476849002064
:1016D000C8647047624800687047624960482839AA
:1016E000006809684FF4E05292FAA2F201F4E05166
:1016F000B2FA82F2D1405F4A515CC8407047594902
:1017000057482839006809684FF4604292FAA2F2FB
:1017100001F46041B2FA82F2D140564A515CC840AD
:10172000704730B54F4B0F21303B016019684A03B9
:101730004FF0000102D54FF4A02204E01A68D20352
:1017400003D54FF48032426000E041601A68D4074C
:101750004FF0010201D0C26000E0C1601C68F825B2
:1017600095FAA5F504F0F804B5FA85F5EC400461A6
:101770003C4C403425686D0702D50524846005E0A3
:101780002468E40701D0826000E08160354C443475
:101790002468E40701D0426100E041611968C90191
:1017A00002D50221816100E082612E492C390A684C
:1017B00002F48002C2610A6802F03F0202620A6813
:1017C00047F6C0731A4093FAA3F3B3FA83F3DA40EF
:1017D00042620A684FF4403302F4403202F580322C
:1017E00093FAA3F35200B3FA83F3DA4082620968F2
:1017F0004FF0706292FAA2F201F07061B2FA82F2D6
:10180000D140C16230BD0F220260164A283A1368E7
:1018100003F003034360136803F0F003836013686D
:1018200003F4E053C36012684FF4E05303EAD202BA
:1018300002611148006800F00F00086070477047AF
:10184000084810B524380068000605D5FFF7F7FFF3
:10185000044980202239087010BD000092A40008BD
:10186000080000203038024000080240000002401A
:1018700000004742A2A40008003C0240F0B5006806
:101880000023446A31B1856A4E1E04EB15444FF4BF
:1018900082750AE044EA024181620FE005EB8307AA
:1018A000C7595B1C04EB1744DBB2B342F6DB4FF4C1
:1018B000807303EB810144EA024242500020F0BDF4
:1018C00000684162002070470021F64A491C91429D
:1018D0000AD80369002BF9DA0021036943F00103F8
:1018E0000361491C914201D9032070470369DB075A
:1018F000F7D10020704770B50446049D0D990698F5
:1019000001280CD0E06840F04000E0602046FFF77E
:10191000DBFF4FF48030A063012D16D01DE0A06BDB
:1019200020F48030A063E068DF4A1040E060E068A7
:1019300020F44010E060012903D1E06840F48010F9
:10194000E0602046FFF7C0FFE6E7A06840F0060031
:10195000A060A06840F02000A060002070BD8168F9
:1019600041F00101816000207047816821F0010190
:1019700081600020704710B5C26822F0C042C2608A
:10198000012901D021B107E0C16841F0005102E016
:10199000C16841F08041C160322001F09AF8002016
:1019A00010BD002110220261BE4A491C914201D99A
:1019B000032070470369DB06F7D40020704700223C
:1019C000202343EA81110161B649521C8A4201D9A0
:1019D0000320704703699B06F7D400207047D0F8B6
:1019E00000280A43C0F80028002070472DE9F04382
:1019F0000E460446DDE909190025DDF838C0079FC9
:101A0000BCF1000F806B11D040F40020A0634FF0B8
:101A10000008C4F8008ED4F80008C4F800080129B2
:101A200007D0D4F8000840F0030007E040F40010AD
:101A3000ECE7D4F800080BB140F00100C4F800084E
:101A400010212046FFF7BBFF2046FFF7AAFF4146C3
:101A5000C4F81088C4F814884FF0FF30C4F8180890
:101A6000C4F81C884FF09042FF2310E004EB4510AF
:101A7000D0F80089B8F1000F02DAC0F8002901E0BF
:101A8000C0F80019C0F81019C0F808396D1CAE4232
:101A9000ECD8002510E004EB4510D0F8008BB8F12D
:101AA000000F02DAC0F8002B01E0C0F8001BC0F8FC
:101AB000101BC0F8083B6D1CAE42ECD8D4F81008DF
:101AC00020F48070C4F81008012F0AD17748C4F8B8
:101AD0003008D4F83008764A1043C4F83008D4F8F7
:101AE0003008A1616FF0804060611FB9A06940F0CB
:101AF0001000A061A0696F490843A061B9F1000F0F
:101B000003D0A06940F00800A061BCF1010F03D12F
:101B1000A06969490843A0610020BDE8F083002165
:101B2000D0F8082812F0060F15D0D0F80828C2F314
:101B30004102012A0CD0D0F80828C2F34102032A3E
:101B400006D0D0F80808C0F34100022802D002E015
:101B5000032100E002210846704730B54C78574B0E
:101B600001220D78AA40012CD0F81C4818D044EA74
:101B70000242C0F81C280A7800EB4210D0F8002B73
:101B800012040BD4D0F8002B0C89C4F30A042243AE
:101B9000C97843EA81410A43C0F8002B002030BDD8
:101BA00092B21443C0F81C480A7800EB4210D0F8F7
:101BB00000492404F2D4D0F800490D89C5F30A0580
:101BC0002C43C978890441EA82510C431C43C0F874
:101BD0000049E3E7F0B54E78394C01250B7800EB6E
:101BE0004312012E32D0D2F8006B360424D4D2F83E
:101BF000006B0F89C7F30A073E43CF78BF0447EA5B
:101C000083531E4346F40043C2F8003B00F53062A4
:101C100022600A7800EB421303F5306323600B89DE
:101C2000C3F30A03CE7843EA864343EA8252236829
:101C30001A4342F400422260D0F83C2809788D40D3
:101C400042EA0541C0F83C180020F0BDD2F8006916
:101C500037041A4E11D4D2F80079B1F808C0CCF389
:101C60000A0C47EA0C0791F803C04FEA8C4C4CEA87
:101C700083531F433743C2F800790A89C2F30A022B
:101C8000CB7842EA8342097842EA815223681A43B8
:101C900032432260D0F83C288D40A9B20A43C0F8F4
:101CA0003C28D1E7400D0300BFFFBDFF00018000CD
:101CB0000300010000383C80040000400080001058
:101CC00000000020F0B50D460446002091F801C048
:101CD0000126F306DF00FE4A097804EB4111BCF14E
:101CE000010F14D0D1F800CB2CF4004CC1F800CB7C
:101CF000297804EB4111C1F8003B297804EB41112C
:101D0000C1F8007B401C904226D90320F0BDD1F8D9
:101D100000C92CF4004CC1F800C9297804EB41112A
:101D2000C1F80039297804EB4111C1F80079401C51
:101D30009042EAD8297804EB4111D1F808194900FA
:101D4000F5D410212046FFF73AFED4F81C08297874
:101D50008E40B1B2884312E0297804EB4111D1F8EA
:101D6000081BC906CED4D4F8040840F48060C4F837
:101D70000408D4F81C0829788E4020EA0640C4F8EC
:101D80001C080020F0BDF0B50D460446002091F877
:101D900001C00126F306DF00CD4A097804EB4111AA
:101DA000BCF1010F14D0D1F800CB2CF4004CC1F8D9
:101DB00000CB297804EB4111C1F8003B297804EBF2
:101DC0004111C1F8007B401C904226D90320F0BD90
:101DD000D1F800C92CF4004CC1F800C9297804EBF3
:101DE0004111C1F80039297804EB4111C1F800799B
:101DF000401C9042EAD8297804EB4111D1F8081927
:101E00004900F5D410212046FFF7D9FDD4F81C086D
:101E100029788E40B1B2884312E0297804EB411151
:101E2000D1F8081BC906CED4D4F8040840F4806069
:101E3000C4F80408D4F81C0829788E4020EA06402B
:101E4000C4F81C080020F0BD30B50024039D65B91E
:101E5000DB1C9B0800EB023000F5805003E051F8DA
:101E6000042B0260641C9C42F9D3002030BD78B57D
:101E70004E786FF06045974C0B7800EB4313012EC2
:101E80002FD0D3F8106B6FF31206C3F8106B0B78DA
:101E900000EB4313D3F8106B2640C3F8106B4B696B
:101EA000002B7DD08C6823445B1EB3FBF4F39BB204
:101EB0000C7800EB4414D4F8106B05EAC3452E43AC
:101EC000C4F8106B0C7800EB4414D4F8105B8E68E7
:101ED0005E43C6F312031D43C4F8105B012A73D09E
:101EE000B2E04E6966B3D3F810696FF31206C3F817
:101EF00010690B7800EB4313D3F810692640C3F840
:101F000010694C698B681C44641EB4FBF3F305EA4A
:101F1000C3440B7800EB4313D3F810592C43C3F898
:101F200010490B7800EB4313D3F810494D69C5F302
:101F300012052C43C3F81049CB78012B16D027E0AB
:101F4000D3F810592540C3F810590B7800EB431310
:101F5000D3F8104944F40024C3F810490B7800EB7F
:101F60004313D3F810496FF312040FE00B7800EB22
:101F70004313D3F8104924F0C044C3F810490B7838
:101F800000EB4313D3F8104944F00054C3F8104950
:101F9000012A12D0CB78012B17D04B692BB300E06C
:101FA00037E0D0F834380D780124AC402343C0F832
:101FB0003438CB78012B08D017E00C7800EB4414B0
:101FC0000B69C4F81439F4E738E0D0F80838DB05B9
:101FD0000B7800EB4313D3F8004902D444F00054CB
:101FE00001E044F08054C3F800490B7800EB431340
:101FF000D3F8004944F00444C3F80049CB78012BDE
:102000003ED100928A8A93B20A78C968FFF71CFF12
:1020100036E00B7800EB4313D3F8104B8D68C5F313
:1020200012052C43C3F8104B0B7800EB4313D3F885
:10203000104B44F40024C3F8104B4FE70B7800EB2F
:102040004313CA68C3F8142BCA78012A0FD1D0F8F9
:102050000828D2050A7800EB4212D2F8003B02D4DD
:1020600043F0005301E043F08053C2F8003B09788D
:1020700000EB4110D0F8001B41F00441C0F8001BF8
:10208000002078BD30B54D78124C0B7800EB43132F
:10209000012D2ED0D3F8105B6FF31205C3F8105B3F
:1020A0000B7800EB4313D3F8105B2540C3F8105BAB
:1020B0004B690BB18B684B610B7800EB4313D3F882
:1020C000104B44F40024C3F8104B0B7804E00000DC
:1020D000400D0300FFFF07E000EB4313D3F8104B64
:1020E0008D68C5F312052C43C3F8104B012A5BD051
:1020F00060E04D69002DD3F810593AD06FF3120506
:10210000C3F810590B7800EB4313D3F8105925404E
:10211000C3F810594C698B689C4200D94B610B780D
:1021200000EB4313D3F8104944F40024C3F81049DA
:102130000B7800EB4313D3F810494D69C5F3120532
:102140002C43C3F810490B7800EB4313D3F8004934
:1021500044F00444C3F80049012A1ED04A6912B36E
:10216000D0F834280B78012199400A43C0F834286C
:1021700029E02540C3F810590B7800EB4313D3F83E
:10218000104944F40024C3F810490B7800EB4313C2
:10219000D3F810496FF31204D3E70A69097800EB0A
:1021A0004110C0F814290EE00B7800EB4313CA6805
:1021B000C3F8142B097800EB4110D0F8001B41F054
:1021C0000441C0F8001B002030BD10B504460023B8
:1021D000D21C900804F5805403E0226841F8042BD7
:1021E0005B1C8342F9D3084610BD4B780A7800EB9C
:1021F0004212012B14D0D2F8003B002B05DBD2F8A1
:10220000003B23F08043C2F8003B097800EB41100B
:10221000D0F8001B41F40011C0F8001B00207047EB
:10222000D2F80039002B05DBD2F8003923F08043C7
:10223000C2F80039097800EB4110D0F8001941F4D8
:102240000011C0F80019E9E74B780A7800EB421258
:10225000012B0BD0D2F8003B23F40013C2F8003B53
:10226000CA78032A17D0022A15D01DE0D2F8003907
:1022700023F40013C2F80039CA78032A01D0022AD5
:1022800012D1097800EB4110D0F8001941F08051CB
:10229000C0F8001908E0097800EB4110D0F8001BE5
:1022A00041F08051C0F8001B0020704710B5044673
:1022B0000021FF2204EB4110C0F80829C0F8082BC8
:1022C000491C0F29F6D34FF0FF30C4F8180800203E
:1022D000C4F81008C4F81408C4F81C082046FFF716
:1022E00060FB10212046FFF76AFB002010BDD0F8EC
:1022F000002822F4FE62C0F80028D0F800284FF42D
:10230000FE6303EA01110A43C0F800280020704769
:1023100010B5D0F8041821F00201C0F80418032009
:1023200000F0D7FB002010BD10B5D0F8041841F024
:102330000201C0F80418032000F0CBFB002010BD00
:102340004169806908407047D0F81818D0F81C0817
:102350000840000C7047D0F81818D0F81C08084046
:1023600080B2704700EB4111D1F8081BD0F8140877
:1023700008407047D0F81038D0F83428CA4002F02E
:10238000010243EAC21200EB4110D0F808091040E4
:10239000704742690A4342617047406900F001009A
:1023A0007047D0F800196FF30A01C0F80019D0F88F
:1023B0000818C1F34101022905D1D0F8001941F0F4
:1023C0000301C0F80019D0F8041841F48071C0F876
:1023D0000418002070470023C0F8103BD0F8103BD1
:1023E00043F40023C0F8103BD0F8103B43F018032F
:1023F000C0F8103BD0F8103B43F0C043C0F8103B8E
:10240000012905D1C0F8142B4FF08021C0F8001B22
:102410000020704708B5D0F8402422F02E02009228
:10242000D20405D4012909D1009941F4805103E077
:1024300021B9009921F48051C0F84014002008BD52
:102440002DE9F041944604460025DDF81880C0F8D7
:10245000005E806B20F48020A063A06B20F400203D
:10246000A063A06B40F40010A0634FF0A047032BC3
:1024700006D1BC4204D0D4F8000440F0040003E0CC
:10248000D4F8000420F00400C4F800041021204611
:10249000FFF795FA2046FFF784FA0020461E06E073
:1024A00004EB4011C1F80865C1F80C55401C844587
:1024B000F6D801212046FFF7ADFFC82000F009FB48
:1024C000A5616661BC4205D180206062F848A062C7
:1024D000F84805E04FF400706062F748A062F748E2
:1024E000C4F80001B8F1000F03D1A06940F010005A
:1024F000A061A069F2490843A0610020BDE8F08115
:10250000D0F8002422F00302C0F80024D0F8002400
:1025100001F003031A43C0F80024012902D0022964
:1025200003D006E04BF6803101E041F27071C0F853
:1025300004140020704738B50446D0F8400420F059
:102540002E00009040F48070C4F840040A2004F586
:10255000886400F0BEFA009820F4807020600020AB
:1025600038BD08B5D0F840040090C0F3414008BD24
:10257000D0F8080480B27047F0B5DDE906564FF098
:10258000FF3C00EB4114059FC4F808C535B1012D8F
:1025900020D0022D02D0032D29D113E040F29D4C12
:1025A000C4F80CC55FEA026C04D5D4F80CC54CF431
:1025B000807C1AE0B0F1A04F19D0D4F80CC54CF0D3
:1025C000600C12E040F29D6CC4F80CC55FEA026C2E
:1025D000EBD40CE040F2252CC4F80CC55FEA026C89
:1025E00005D5D4F80CC54CF4C07CC4F80CC5D0F8A3
:1025F00018C44FF0010E0EFA01FE4CEA0E0CC0F8A2
:1026000018C4816941F0007181614FF0FE5000EA09
:1026100083514FF4F04000EAC22001434FF40040E0
:1026200000EA02200143022F0FD0002041EA40407F
:102630004FF4402101EA85410843C6F30A010843EB
:10264000C4F80005032D02D007E00120EEE7D4F81E
:10265000000540F00050C4F800050020F0BD30B582
:10266000024601240023974800EAC44040F0004598
:1026700002F5A06000EB4110056102F5A06000EBDF
:102680004110036823F0804343F0004302F5A0604B
:1026900000EB41100360002030BD2DE9F84F0546E6
:1026A0000C4616464FF0000BDA4600274FF48078B0
:1026B000B946B5F1A04F1CD02079D0B94EB9607998
:1026C000012806D161782846FFF7C9FF0020BDE840
:1026D000F88F012E0DD1607805F5A06101EB401057
:1026E000C06820F06002607801EB4010C2600020FA
:1026F0006071206968B1218920690844401EB0FBDF
:10270000F1F087B2474505DD4746208978432061CF
:1027100000E00127E07810B120897843206120692A
:10272000C0F31200674901EAC7410843A17A4FF09C
:10273000C04202EA41710843617805F5A06202EBEC
:102740004111086136B1607805F5A06101EB4010D8
:10275000E26842614FF48160405900F0010080F06E
:10276000010B607805F5A06101EB4010006820F0D6
:102770000052607801EB40100260607801EB40107D
:10278000006840EA4B72607801EB401002606078AC
:1027900001EB4010D0F8009029F0804949F0004941
:1027A000607801EB4010C0F80090AEBBE07898BBB9
:1027B000206988B3E07930B1012813D0022803D012
:1027C00003281ED10DE000BF2069C01CC0F38F0A92
:1027D000E86A80B2504503D2A86940F02000A861A1
:1027E00010E000BF2069C01CC0F38F0A4FF4826064
:1027F000405980B2504503D2A86940F08060A8617A
:1028000000E000BF00BF00200090208A83B2627801
:102810002846E168FFF718FB002058E7014640F220
:102820001440405880B2704710B50246002302F5AC
:10283000A06000EB41100068C0F3814040B102F598
:10284000A06000EB41100068C0F38140022853D122
:1028500002F5A06000EB4110006840F0804402F5F2
:10286000A06000EB41100460D06A00F47F00F0B972
:1028700002F5A06000EB4110006820F0004402F572
:10288000A06000EB4110046002F5A06000EB411075
:10289000006840F0004402F5A06000EB41100460C5
:1028A00000BF581C0346B0F57A7F0DD916E016E03C
:1028B00080006000E0004000000200010003E00032
:1028C000080020A30000F81F02F5A06000EB4110F3
:1028D000006800F00040B0F1004FE2D053E002F594
:1028E000A06000EB4110006840F0004402F5A060D9
:1028F00000EB4110046046E002F5A06000EB4110DF
:10290000006840F0804402F5A06000EB41100460D4
:102910004FF48260805880B248BB02F5A06000EBA3
:102920004110006820F0004402F5A06000EB411067
:10293000046002F5A06000EB4110006840F0004424
:1029400002F5A06000EB4110046000BF581C034674
:10295000B0F57A7F00D909E002F5A06000EB4110E4
:10296000006800F00040B0F1004FEFD00BE002F53E
:10297000A06000EB4110006840F0004402F5A06048
:1029800000EB41100460002010BDF0B505460027A3
:10299000A86820F00100A86010212846FFF70FF872
:1029A0002846FEF7FEFF002411E005F5A06000EBCD
:1029B0004410066846F0804626F0004626F400469D
:1029C00005F5A06000EB44100660601CC4B20F2C3B
:1029D000EBDD002423E005F5A06000EB4410066861
:1029E00046F0804646F0004626F4004605F5A06015
:1029F00000EB4410066000BF781C0746B0F57A7FF4
:102A000000D909E005F5A06000EB4410006800F073
:102A10000040B0F1004FEFD000BF601CC4B20F2CDB
:102A2000D9DD4FF0FF3140F2144041510846686152
:102A3000A86840F00100A8600020F0BD704710B504
:102A400004465B484FF47A710068B0FBF1F0FEF782
:102A50001AF900222146501EFEF7D3F8002010BDBF
:102A6000544810B5016841F400710160016841F4F7
:102A700080610160016841F4807101600320FEF70C
:102A8000B3F80020FFF7DBFF04F046FB002010BD89
:102A90007047494A10B54FF0FF30106000211160B7
:102AA000121D10601160444A103A10601160121D2E
:102AB00010601160121D10601160FFF7E9FF002027
:102AC00010BD3E480168491C016070473B480068E2
:102AD000704731B5FFF7FAFF009C0546601C00D037
:102AE000641CFFF7F3FF401BA042FAD338BD4FF040
:102AF000E020016921F00201016170474FF0E02000
:102B0000016941F00201016170472D4870472D486D
:102B10000068000C70472B480068C0F30B0070473A
:102B20002848416841F001014160704725484168EB
:102B300021F00101416070472248416841F00201E3
:102B4000416070471F48416821F0020141607047B1
:102B50001C48416841F004014160704719484168D0
:102B600021F0040141607047012090FAA0F1164A5B
:102B7000B1FA81F102EB8101C1F800047047002035
:102B8000012191FAA1F1104AB1FA81F102EB810120
:102B9000C1F8000470470D49096801600B49091D1F
:102BA000096841600949083109688160704700007F
:102BB00008000020003C02402038024004000020B1
:102BC00000010701002004E000002742107AFF1FE7
:102BD00001681823CAB2103AB2FBF3F2F84B6FF354
:102BE0000901032A9B5CC36500D9091D816508465C
:102BF00070472DE9F0410446FFF768FF05465CB1D8
:102C0000002684F83460022084F8350020680168CA
:102C100021F0010101600DE00120BDE8F081FFF726
:102C200055FF401B052805D920206065032084F846
:102C30003500F2E720680068C007F0D121680A6813
:102C4000E0480240D4E901031843D4E903352B439B
:102C5000184363691843A3691843E3691843236A57
:102C600018431043626A042A03D1D4E90B231A43A0
:102C70001043086020684069656A20F00701284613
:102C80000D43012704280CD1A06A0543E06A40B136
:102C9000204600F0C8FA20B14020606584F8357005
:102CA000BAE7206845612046FFF792FF94F85C2060
:102CB0003F2191408160666584F835700020ACE763
:102CC00070B5040025D094F83500022820D0206883
:102CD000016821F00101016020680025056020687D
:102CE0004560206885602068C560206805612168AE
:102CF000212048612046FFF76BFF94F85C203F21BC
:102D000091408160656584F8355084F83450002026
:102D100070BD012070BD30B50468256825F480259C
:102D20002560046863608368402B036803D0996062
:102D30000068C26030BD9A600068C16030BD70B587
:102D4000044690F83400002501280CD0012084F8B6
:102D5000340094F835600020012E06D084F8340049
:102D60000225284670BD022070BD022684F8356019
:102D700060652046FFF7CFFF2068016841F0010140
:102D80000160EEE72DE9F0410446866D90F83400CD
:102D9000002501280CD0012084F8340094F8357007
:102DA0000020012F06D084F834000225284634E79D
:102DB000022032E7022784F8357060652046FFF76D
:102DC000AAFF94F85C103F208840B060206801683A
:102DD00041F0160101602068416941F080014161C4
:102DE000206C20B12068016841F008010160206872
:102DF000016841F001010160D8E72DE9F041044686
:102E0000876DFFF763FE054694F83500002602281B
:102E100005D08020606584F834600120FDE62068DC
:102E2000016821F0160101602068416921F08001EC
:102E30004161206C08B9A06C20B12068016821F0C4
:102E4000080101602068016821F0010101600BE0C8
:102E5000FFF73CFE401B052806D92020606504F8DA
:102E6000346F03206070D8E620680068C007EFD197
:102E700094F85C103F208840B86004F8346F01205B
:102E800060700020C9E690F83510022903D0802137
:102E9000416501207047052180F835100068016800
:102EA00021F001010160002070472DE9F84F044630
:102EB000002016468B460090FFF708FE804694F8E7
:102EC00035004FF00009022804D08020606584F8A6
:102ED000349060E020680068C00503D54FF480702E
:102EE000606558E094F85C00BBF1000F06D0102735
:102EF000A56D874028684FF0010A36E02027F7E7E4
:102F0000701C0FD02EB1FFF7E1FDA0EB0800B0421E
:102F100008D92020606584F8349084F835A0032017
:102F2000BDE8F88F286894F85C20082191400142A0
:102F300004D0626D42F001026265A96094F85C20E1
:102F400021499140014204D0626D42F00202626563
:102F5000A9601D4994F85C20C91C9140014204D02D
:102F6000626D42F004026265A960384202D1606D70
:102F7000C007C5D0606D302678B1606DC0070CD039
:102F80002046FFF73AFF94F85C008640AE6084F874
:102F9000349084F835A00120C2E7BBF1000F06D0C1
:102FA00094F85C1010208840A8600098B8E794F866
:102FB0005C008640AE6084F8349084F835A0F4E775
:102FC0008AA400083F8010F0010080002DE9F8433A
:102FD00004464FF00008CDF80080A8484FF4165181
:102FE000A56D0068B0FBF1F72E6894F85C0008222C
:102FF00002FA00F1314210D02068016849070CD56F
:10300000016821F00401016094F85C0002FA00F10B
:10301000A960606D40F00100606594F85C1098480C
:103020008840304208D021684969090604D5A86063
:10303000606D40F002006065914894F85C10C01C1F
:103040008840304208D021680968890704D5A86003
:10305000606D40F00400606594F85C1010208840BA
:10306000304218D021680968090714D5A860206883
:103070000168490304D50068000308D5A16C07E086
:103080000168C90503D4016821F008010160216CC1
:1030900009B12046884794F85C10202088403042CF
:1030A0004FF0010631D021680968C9062DD5A86006
:1030B00094F8350005282068016806D0490347D5F3
:1030C000006800031DD4616C1CE021F01601016052
:1030D0002068416921F080014161206C08B9A06C31
:1030E00020B12068016821F00801016094F85C10AB
:1030F0003F208840A86084F8348084F83560216DD2
:103100001FE0E16B09B120468847606D00282BD095
:10311000606DC00714D0052084F835002068016870
:1031200021F0010101600098401C0090B84203D8D2
:1031300020680068C007F6D184F8348084F83560D0
:10314000E16C002910D001B02046BDE8F0430847EB
:103150000168C905D5D4016821F01001016084F827
:10316000348084F83560CCE7BDE8F88310B590F87A
:1031700034400023012C0CD0012480F8344090F816
:103180003540012C07D00123002180F83410184667
:1031900010BD022010BD0629F6D2DFE801F00305BC
:1031A00007090B0DC263EFE70264EDE74264EBE74A
:1031B0008264E9E7C264E7E70265E5E710B590F8E5
:1031C00034200023012A08D0012280F8342090F80E
:1031D00035400022012C02D01BE0022010BD07293F
:1031E00017D2DFE801F00406080A0C0E1000C263D3
:1031F00010E002640EE042640CE082640AE0C26403
:1032000008E0026506E0C263026442648264C2644C
:10321000F7E7012380F83420184610BD90F83500F8
:103220007047406D704710B5014600208B698A6A6F
:103230004FF0C07453B1B3F5005F15D072B1012ADD
:103240000CD0022A0AD0032A09D104E01AB1012ABB
:1032500006D0022A03D1C96AC90100D5012010BDD8
:10326000C96AA142FAD010BD002AF7D0012AF2D0D3
:10327000022AF3D0032AF3D010BD0000080000207A
:1032800001008000704730B587B00D46040050D073
:10329000022084F839002046FFF7F4FF211D206842
:1032A00000F03AFDAB6829680322206801F089FF2D
:1032B0002068816921F00C018161206881696A6858
:1032C000114381612068416841F0800141602068BC
:1032D000816821F0700181602068816841F04001BF
:1032E00081602068816821F0070181602068816821
:1032F00041F004018160002070210590009104904C
:10330000069003900290E86801906946206801F0F9
:10331000BDFE2068416821F070014160206841686D
:1033200041F050014160012084F83900002007B0CD
:1033300030BD0120FBE7704710B50446022084F839
:1033400039002068016A41F21112114207D1016A65
:103350009210114203D1016821F001010160204661
:10336000FFF7E9FF002084F8390084F8380010BD29
:1033700010B5044600680122002100F021FE2068FB
:10338000016841F001010160002010BD10B5044644
:1033900000220068114600F013FE2068016A41F225
:1033A0001112114207D1016A9210114203D1016832
:1033B00021F001010160002010BD10B50446006835
:1033C000C16841F00201C16001220021206800F0C3
:1033D000F7FD2068016841F001010160002010BD87
:1033E00010B5044600220068114600F0E9FD20688F
:1033F000C16821F00201C1602068016A41F2111226
:10340000114207D1016A9210114203D1016821F0E3
:1034100001010160002010BD70B5044690F839002C
:1034200015460E46022805D094F83900012805D12A
:103430000EB905B170BD022084F8390001220021C7
:10344000206800F0BDFD216AF8482B46C863216A58
:10345000F7483246C8642168206A3431FFF792FC8D
:103460002068C16841F40071C1602068016841F0C2
:1034700001010160002070BD10B504460022006803
:10348000114600F09DFD2068C16821F40071C16003
:103490002068016A41F21112114207D1016A9210AB
:1034A000114203D1016821F001010160002010BD2B
:1034B00010B504460068042200F023FC2068416C2B
:1034C00041F4004141642068016841F0010101605C
:1034D000002010BD10B504460068002200F011FC69
:1034E0002168086A41F21113184240F2444206D1A1
:1034F000086A104203D1486C20F4004048642068F8
:10350000016A194206D1016A114203D1016821F012
:1035100001010160002010BD10B50268044631B100
:10352000042908D008291FD00C2908D120E0D06830
:1035300040F0020002E0D06840F00400D060206853
:10354000C26842F08002C2600422206800F0D9FB09
:103550002068416C41F4004141642068016841F0F9
:1035600001010160002010BDD06840F00800E5E7CF
:10357000D06840F01000E1E710B50268044631B1B0
:10358000042908D0082932D00C2908D133E0D068AA
:1035900020F0020002E0D06820F00400D060002299
:1035A000206800F0AEFB2068026A40F244410A4203
:1035B00003D1C26822F08002C2602068026A41F230
:1035C00011131A4206D1026A0A4203D1426C22F454
:1035D000004242642068026A1A4206D1026A0A4224
:1035E00003D1016821F001010160002010BDD06805
:1035F00020F00800D2E7D06820F01000CEE770B5C8
:10360000044690F8390016460D46022805D094F875
:103610003900012805D10EB903B170BD022084F82C
:1036200039008448824935B1042D13D0082D31D09A
:103630000C2D1ED13DE0226AD063206AC16422684D
:1036400031463432206AFFF79DFB2068C16841F49F
:1036500000710DE0626AD063606AC164226831461D
:103660003832606AFFF78EFB2068C16841F48061E0
:10367000C16004222946206800F043FB2068416CA9
:1036800041F4004141642068016841F0010101609A
:10369000002070BDA26AD063A06AC164226831466E
:1036A0003C32A06AFFF76EFB2068C16841F40061FC
:1036B000DEE7E26AD063E06AC164226831464032E4
:1036C000E06AFFF75FFB2068C16841F48051CFE7F3
:1036D00010B50268044631B1042908D008292DD05C
:1036E0000C2908D12EE0D06820F4007002E0D068E8
:1036F00020F48060D0600022206800F002FB206887
:10370000026A41F211131A4240F2444106D1026AA0
:103710000A4203D1426C22F4004242642068026AE9
:103720001A4206D1026A0A4203D1016821F001015E
:103730000160012084F83900002010BDD06820F419
:103740000060D7E7D06820F48050D3E710B5044676
:103750000068042200F0D5FA2068416C41F4004171
:1037600041642068016841F001010160002010BD42
:1037700010B504460068002200F0C3FA2168086A08
:1037800041F21113184240F2444206D1086A104235
:1037900003D1486C20F4004048642068016A194253
:1037A00006D1016A114203D1016821F001010160D3
:1037B000002010BD10B50268044631B1042908D0BC
:1037C00008291FD00C2908D120E0D06840F0020061
:1037D00002E0D06840F00400D0602068C26842F087
:1037E0008002C2600422206800F08BFA2068416CDD
:1037F00041F4004141642068016841F00101016029
:10380000002010BDD06840F00800E5E7D06840F027
:103810001000E1E710B50268044669B104290FD031
:10382000082939D00C290FD13AE00000BF47000821
:10383000A93E00086B410008D06820F0020002E0B9
:10384000D06820F00400D0600022206800F059FA0F
:103850002068026A40F244410A4203D1C26822F061
:103860008002C2602068026A41F211131A4206D136
:10387000026A0A4203D1426C22F400424264206888
:10388000026A1A4206D1026A0A4203D1016821F093
:1038900001010160002010BDD06820F00800D2E7CF
:1038A000D06820F01000CEE770B5044690F83900DB
:1038B00016460D46022805D094F83900012805D196
:1038C0000EB903B170BD022084F83900FD48FE49ED
:1038D00035B1042D13D0082D31D00C2D1ED13DE073
:1038E000226AD063206AC164226831463432206A79
:1038F000FFF748FA2068C16841F400710DE0626A80
:10390000D063606AC164226831463832606AFFF76A
:1039100039FA2068C16841F48061C16004222946F7
:10392000206800F0EEF92068416C41F400414164E8
:103930002068016841F001010160002070BDA26AA9
:10394000D063A06AC164226831463C32A06AFFF7A6
:1039500019FA2068C16841F40061DEE7E26AD063C9
:10396000E06AC164226831464032E06AFFF70AFA31
:103970002068C16841F48051CFE710B50268044661
:1039800031B1042908D008292DD00C2908D12EE006
:10399000D06820F4007002E0D06820F48060D0602D
:1039A0000022206800F0ADF92068026A41F211138C
:1039B0001A4240F2444106D1026A0A4203D1426CE3
:1039C00022F4004242642068026A1A4206D1026A66
:1039D0000A4203D1016821F001010160012084F84D
:1039E0003900002010BDD06820F40060D7E7D0680F
:1039F00020F48050D3E710B504460068042200F09C
:103A000080F92068416C41F400414164002010BD00
:103A100010B504460068002200F073F92168086AB6
:103A200041F21113184240F2444206D1086A104292
:103A300003D1486C20F4004048642068016A1942B0
:103A400006D1016A114203D1016821F00101016030
:103A5000002010BD10B504460068C26842F00202A2
:103A6000C2602068C26842F00402C260042220687A
:103A700000F047F92068416C41F4004141640020A6
:103A800010BD10B504460068C26822F00202C26090
:103A90002068C26822F00402C2600022206800F0A0
:103AA00030F92068026A41F211131A4240F244418F
:103AB00006D1026A0A4203D1426C22F400424264F7
:103AC0002068026A1A4206D1026A0A4203D10168DA
:103AD00021F001010160002010BD10B590F83830D0
:103AE000012B0AD0012380F8383041B1102906D0CB
:103AF000202904D0302902D00AE0022010BD03683A
:103B00009C6824F070049C6003689C680C439C6073
:103B100001684B6843F001034B6001684B6823F078
:103B200004034B6001684B6813434B60002180F82D
:103B30003810084610BD10B590F83830012B0AD067
:103B4000012380F8383041B1102906D0202904D053
:103B5000302902D00AE0022010BD03689C6824F0DE
:103B600070049C6003689C680C439C6001684B680F
:103B700043F001034B6001684B6823F004034B6082
:103B800001684B6813434B600168CA6842F0200229
:103B9000CA60002180F83810084610BD704710B583
:103BA000806B012180F83910FFF7F8FF10BD10B5C8
:103BB00090F83830012B0AD0012380F8383041B119
:103BC000102906D0202904D0302902D00AE0022092
:103BD00010BD03689C6824F070049C6003689C68B6
:103BE0000C439C6001684B6843F001034B60016823
:103BF0004B6823F004034B6001684B6813434B6030
:103C0000AFF26501026BD163026B2F49D164016889
:103C1000CA6842F40052CA60002180F83810084691
:103C200010BD30B590F83820012A20D0012380F84B
:103C30003830022280F839200268546824F0700479
:103C40005460026854680D682C435460026894689C
:103C500024F0800494600268946849680C4394607E
:103C600080F83930002180F83810084630BD022035
:103C700030BD10B590F83820012A2BD0012280F8F1
:103C80003820CA688C6822F4407222434C6822F4BF
:103C9000806222430C6822F4006222430C6922F401
:103CA000805222434C6922F400522243896922F453
:103CB00080420A43002322F400420A4301684A6416
:103CC00004E000006B410008A93E000880F838308D
:103CD000002010BD022010BD90F83820012A0AD023
:103CE000012200F8382F50F8383C19654270002145
:103CF00001700846704702207047704790F83900FD
:103D0000704710B50423046A8B409C430462036A25
:103D10008A401343036210BDF0B50268FD4DFE4EAC
:103D2000FE4FDFF8FCC3FF4B4FF0804EA84209D096
:103D3000704507D0B04205D0B84203D0604501D0ED
:103D4000984203D122F070044A682243A8421BD053
:103D5000704519D0B04217D0B84215D0604513D085
:103D6000984211D0F04CA0420ED0F04CA0420BD0A3
:103D7000EF4CA04208D0EF4CA04205D0EE4CA04240
:103D800002D0EE4CA04203D122F44074CA68224310
:103D900002608A68C2620A688262A84201D09842C0
:103DA00001D10969016301214161F0BD704710B57E
:103DB000040003D094F8390010B107E0012010BDD1
:103DC000002084F838002046FFF7F0FF022084F836
:103DD0003900211D2068FFF79FFF012084F839007A
:103DE000002010BD704710B50446022084F8390049
:103DF0002068016A41F21112114207D1016A921042
:103E0000114203D1016821F0010101602046FFF752
:103E1000E9FF002084F8390084F8380010BD022141
:103E200080F8391001680A6842F001020A60012135
:103E300080F8391000207047022180F8391001689D
:103E40000A6A41F211131A4207D10A6A9B101A42F8
:103E500003D10A6822F001020A60012180F83910BA
:103E6000002070470168CA6842F00102CA60006819
:103E7000016841F001010160002070470168CA68D3
:103E800022F00102CA600068016A41F21112114277
:103E900007D1016A9210114203D1016821F001019A
:103EA000016000207047704710B5806B012180F8D9
:103EB0003910FFF7F8FF10BD704710B5806B012176
:103EC00080F83910FFF7F8FF10BD70B5044690F880
:103ED0003900022805D094F83900012805D109B924
:103EE00002B170BD022084F83900E3699448D863B8
:103EF000AFF24B00E369D8642568134605F12C0244
:103F0000E069FEF73FFF2068C16841F48071C1603D
:103F10002068016841F001010160002070BD016866
:103F2000CA6822F48072CA6001680A6A41F21113F9
:103F30001A4207D10A6A9B101A4203D10A6822F07A
:103F400001020A60012180F8391000207047704793
:103F500010B5040003D094F8390010B107E0012037
:103F600010BD002084F838002046FFF7F0FF022043
:103F700084F83900211D2068FFF7CEFE012084F867
:103F80003900002010BD704710B50446022084F8A7
:103F900039002068016A41F21112114207D1016A09
:103FA0009210114203D1016821F001010160204605
:103FB000FFF7E9FF002084F8390084F8380010BDCD
:103FC00010B50123046A8B409C430462036A8A4053
:103FD0001343036210BD10B5044600680122FFF7C9
:103FE000EFFF4C482168814202D04E48814203D104
:103FF000486C40F4004048642068016841F00101C9
:104000000160002010BD10B5044600680022FFF7D3
:10401000D7FF404841F2111221689310814202D02B
:104020004048814209D1086A104206D1086A184204
:1040300003D1486C20F4004048642068016A1142B2
:1040400006D1016A194203D1016821F00101016022
:10405000002010BD10B50268044631B1042908D013
:10406000082920D00C2908D121E0D06840F00200B6
:1040700002E0D06840F00400D06001222068FFF721
:104080009FFF24492068884202D02649884203D1F4
:10409000416C41F4004141642068016841F0010134
:1040A0000160002010BDD06840F00800E4E7D0684F
:1040B00040F01000E0E710B50268044631B1042971
:1040C00008D0082948D00C2908D149E0D06820F050
:1040D000020002E0D06820F00400D06000222068D6
:1040E000FFF76EFF0B4841F21112216893108142D5
:1040F00002D00C48814209D1086A104206D1086AF0
:10410000184203D1486C20F4004048642068016ADA
:10411000114217E000000140000400400008004088
:10412000000C0040000401400040014000440140F8
:104130000048014000180040001C004000200040E2
:10414000BB3E000806D1016A194203D1016821F083
:1041500001010160002010BDD06820F00800BCE71C
:10416000D06820F01000B8E7704710B5846B0121CB
:1041700084F83910226A824201D121760EE0616A08
:10418000814201D1022008E0A16A814201D10420CC
:1041900003E0E16A814201D1082020762046FFF742
:1041A000E3FF0020207610BD70B5044690F839007A
:1041B00016460D46022805D094F83900012805D18D
:1041C0000EB903B170BD022084F83900AFF265006A
:1041D000AFF22B3135B1042D13D0082D37D00C2D73
:1041E0001ED143E0226AD063206AC164226831464E
:1041F0003432206AFEF7C6FD2068C16841F40071C0
:104200000DE0626AD063606AC16422683146383268
:10421000606AFEF7B7FD2068C16841F48061C16043
:10422000012229462068FFF7CBFEFE49206888421C
:1042300002D0FD49884203D1416C41F40041416400
:104240002068016841F001010160002070BDA26A90
:10425000D063A06AC164226831463C32A06AFEF78E
:1042600091FD2068C16841F40061D8E7E26AD0633B
:10427000E06AC164226831464032E06AFEF782FD9E
:104280002068C16841F48051C9E710B5026804464E
:1042900031B1042908D0082932D00C2908D133E0E3
:1042A000D06820F4007002E0D06820F48060D06014
:1042B00000222068FFF784FEDA4841F211122168DB
:1042C0009310814202D0D848814209D1086A104235
:1042D00006D1086A184203D1486C20F400404864B3
:1042E0002068016A114206D1016A194203D10168AE
:1042F00021F001010160012084F83900002010BD87
:10430000D06820F40060D2E7D06820F48050CEE777
:10431000704710B5040003D094F8390010B107E0DD
:10432000012010BD002084F83800204603F084F8F6
:10433000022084F83900211D2068FFF7EDFC0120E0
:1043400084F83900002010BD704710B504460220E3
:1043500084F839002068016A41F21112114207D134
:10436000016A9210114203D1016821F0010101603C
:10437000204603F085F8002084F8390084F83800DE
:1043800010BD10B5044600680122FFF719FEA548CC
:104390002168814202D0A448814203D1486C40F494
:1043A000004048642068016841F00101016000207C
:1043B00010BD10B5044600680022FFF701FE9948C1
:1043C00041F2111221689310814202D09648814235
:1043D00009D1086A104206D1086A184203D1486C14
:1043E00020F4004048642068016A114206D1016A45
:1043F000194203D1016821F001010160012084F814
:104400003900002010BD10B50268044631B10429FE
:1044100008D0082920D00C2908D121E0D06840F02C
:10442000020002E0D06840F00400D0600122206861
:10443000FFF7C6FD7B492068884202D07A4988424E
:1044400003D1416C41F4004141642068016841F0AE
:1044500001010160002010BDD06840F00800E4E7D1
:10446000D06840F01000E0E710B50268044631B1B2
:10447000042908D008292FD00C2908D130E0D068B1
:1044800020F0020002E0D06820F00400D06000229A
:104490002068FFF795FD634841F2111221689310DF
:1044A000814202D06048814209D1086A104206D197
:1044B000086A184203D1486C20F400404864206820
:1044C000016A114206D1016A194203D1016821F043
:1044D00001010160002010BDD06820F00800D5E780
:1044E000D06820F01000D1E770B5044690F839008C
:1044F00016460D46022805D094F83900012805D14A
:104500000EB903B170BD022084F83900AFF2A530B6
:10451000AFF26B6135B1042D13D0082D37D00C2DBF
:104520001ED143E0226AD063206AC164226831460A
:104530003432206AFEF726FC2068C16841F400711D
:104540000DE0626AD063606AC16422683146383225
:10455000606AFEF717FC2068C16841F48061C160A1
:10456000012229462068FFF72BFD2E49206888424A
:1045700002D02D49884203D1416C41F4004141648D
:104580002068016841F001010160002070BDA26A4D
:10459000D063A06AC164226831463C32A06AFEF74B
:1045A000F1FB2068C16841F40061D8E7E26AD0639A
:1045B000E06AC164226831464032E06AFEF7E2FBFD
:1045C0002068C16841F48051C9E710B5026804460B
:1045D00031B1042908D0082937D00C2908D138E096
:1045E000D06820F4007002E0D06820F48060D060D1
:1045F00000222068FFF7E4FC0A4841F2111221680A
:104600009310814202D00848814209D1086A1042C1
:1046100006D1086A184203D1486C20F4004048646F
:10462000206803E00000014000040140016A1142DB
:1046300006D1016A194203D1016821F0010101602C
:10464000012084F83900002010BDD06820F40060FB
:10465000CDE7D06820F48050C9E7704710B504005A
:1046600003D094F8390010B107E0012010BD0020FC
:1046700084F83800204602F0B8FE022084F83900A1
:10468000211D2068FFF748FB012084F83900002035
:1046900010BD704710B50446022084F83900206828
:1046A000016A41F21112114207D1016A92101142BE
:1046B00003D1016821F001010160204602F0CCFE27
:1046C000002084F8390084F8380010BD10B5044685
:1046D00000680122FFF774FC2068016841F00101C5
:1046E0000160002010BD10B5044600680022FFF7ED
:1046F00067FC2068016A41F21112114207D1016A78
:104700009210114203D1016821F0010101600020E3
:1047100010BD10B50268044631B1042908D008293B
:1047200015D00C2908D116E0D06840F0020002E054
:10473000D06840F00400D06001222068FFF740FC00
:104740002068016841F001010160002010BDD068BF
:1047500040F00800EFE7D06840F01000EBE710B53C
:104760000268044631B1042908D008291ED00C295A
:1047700008D11FE0D06820F0020002E0D06820F0ED
:104780000400D06000222068FFF71AFC2068016A4C
:1047900041F21112114207D1016A9210114203D164
:1047A000016821F001010160002010BDD06820F0F7
:1047B0000800E6E7D06820F01000E2E7704710B587
:1047C000846B012184F83910226A824201D121765A
:1047D0000EE0616A814201D1022008E0A16A8142B3
:1047E00001D1042003E0E16A814201D10820207652
:1047F0002046FFF7E3FF0020207610BD70B5044689
:1048000090F839000D46022805D094F839000128A7
:1048100005D10AB903B170BD022084F83900AFF2A6
:104820006100AFF67B1135B1042D12D0082D2AD0CE
:104830000C2D1CD135E0266AF063206AC164216822
:10484000206A3431FEF79EFA2068C16841F4007195
:104850000CE0666AF063606AC1642168606A38319E
:10486000FEF790FA2068C16841F48061C1600122BE
:1048700029462068FFF7A4FB2068016841F0010188
:104880000160002070BDA66AF063A06AC16421685F
:10489000A06A3C31FEF776FA2068C16841F40061F5
:1048A000E4E7E66AF063E06AC1642168E06A4031E7
:1048B000FEF768FA2068C16841F48051D6E710B568
:1048C0000268044631B1042908D0082921D00C29F6
:1048D00008D122E0D06820F4007002E0D06820F413
:1048E0008060D06000222068FFF76AFB2068016AC0
:1048F00041F21112114207D1016A9210114203D103
:10490000016821F001010160012084F839000020D4
:1049100010BDD06820F40060E3E7D06820F4805038
:10492000DFE7704770B50D46040003D094F83900F6
:1049300010B107E0012070BD002084F83800204647
:10494000FFF7EFFF022084F83900211D2068FFF7F0
:10495000E3F92068016821F008010160206801681E
:1049600029430160012084F83900002070BD7047A0
:1049700010B50446022084F839002068016A41F22B
:104980001112114207D1016A9210114203D101683C
:1049900021F0010101602046FFF7E9FF002084F8C3
:1049A000390084F8380010BD10B5044600680122B3
:1049B0000021FFF705FB012204212068FFF700FB1F
:1049C000F9492068884202D0F849884203D1416CF5
:1049D00041F400414164002010BD10B5044600229E
:1049E00000681146FFF7ECFA002204212068FFF767
:1049F000E7FAED4841F2111221689310814202D08A
:104A0000EA48814209D1086A104206D1086A184270
:104A100003D1486C20F4004048642068016A1142C8
:104A200006D1016A194203D1016821F00101016038
:104A3000002010BD10B504460068C16841F00201B5
:104A4000C1602068C16841F00401C16001220021F9
:104A50002068FFF7B5FA012204212068FFF7B0FAB9
:104A6000D1492068884202D0D049884203D1416CA4
:104A700041F400414164002010BD10B504460068B7
:104A8000C16821F00201C1602068C16821F0040101
:104A9000C160002211462068FFF792FA002204212B
:104AA0002068FFF78DFAC04941F211122068931077
:104AB000884202D0BD49884209D1016A114206D11B
:104AC000016A194203D1416C21F40041416420681C
:104AD000016A114206D1016A194203D1016821F02D
:104AE00001010160002010BD70472DE9F0410D4625
:104AF000040003D094F8390018B108E00120BDE8A3
:104B0000F081002084F838002046FFF7EDFF0220F6
:104B100084F839002068816821F007018160211D37
:104B20002068FFF7F9F8206881688269066A2B68B7
:104B3000AF690B4340F203318A4342EA0722A96876
:104B4000EF6911434FF6FC429143EA6841EA0721BD
:104B50000A4329692F6A090141EA0737696817433F
:104B60006D6926F0AA0242EA0512114383602068AB
:104B7000876120680162012084F839000020BEE7C7
:104B8000704710B50446022084F839002068016A95
:104B900041F21112114207D1016A9210114203D160
:104BA000016821F0010101602046FFF7E9FF0020C4
:104BB00084F8390084F8380010BD10B50446006848
:104BC00089B1042904D001220021FFF7F9F92068F6
:104BD00001220421FFF7F4F92068016841F0010186
:104BE0000160002010BD01220021F3E710B504464A
:104BF0000068D1B1042904D000221146FFF7E0F982
:104C0000206800220421FFF7DBF92068016A41F2E5
:104C10001112114207D1016A9210114203D10168A9
:104C200021F001010160002010BD00221146EAE7D9
:104C300010B50446006889B104294FF0010216D06E
:104C40000021FFF7BDF9012204212068FFF7B8F920
:104C50002068C16841F00201C1600BE0012200211F
:104C6000FFF7AEF92068C16841F0020106E00421B7
:104C7000FFF7A6F92068C16841F00401C16020680F
:104C8000016841F001010160002010BD10B504462B
:104C9000006841B304294FF000022DD00021FFF736
:104CA0008FF9002204212068FFF78AF92068C16883
:104CB00021F00201C1602068C16821F00401C160D7
:104CC0002068016A41F21112114207D1016A921063
:104CD000114203D1016821F001010160012084F833
:104CE0003900002010BD00221146FFF769F9206845
:104CF000C16821F00201E2E70421FFF761F9DAE778
:104D00002DE9F041044690F83900069D98460228A6
:104D100009D094F83900012809D112B1B8F1000F77
:104D200002D10DB10120EAE6022084F83900AFF289
:104D30007156AFF68B6721B104291AD0182965D1B5
:104D400036E0206A2B46C663206AC7642168206A61
:104D50003431FEF717F82068C16841F40071C16072
:104D60002068016841F001010160012200212068F2
:104D700017E0606A2B464246C663606AC7642168D2
:104D8000606A3831FDF7FEFF2068C16841F4806138
:104D9000C1602068016841F0010101600122042125
:104DA0002068FFF70DF931E00000014000040140E8
:104DB000206A2B46C663206AC7642168206A3431A2
:104DC000FDF7E0FF606A2B464246C663606AC7642F
:104DD0002168606A3831FDF7D5FF2068016841F02D
:104DE00001010160012200212068FFF7E9F801229A
:104DF00004212068FFF7E4F82068C16841F40071DD
:104E0000C1602068C16841F48061C160002076E61D
:104E100010B50446006841B304294FF000022DD0BC
:104E20000021FFF7CDF8002204212068FFF7C8F821
:104E30002068C16821F40071C1602068C16821F454
:104E40008061C1602068016A41F21112114207D1EC
:104E5000016A9210114203D1016821F00101016041
:104E6000012084F83900002010BD00221146FFF710
:104E7000A7F82068C16821F40071E2E70421FFF778
:104E80009FF8DAE77047704770B50446006801691B
:104E90004FF00005C943890715D4C168C943890784
:104EA00011D4E91E01610120207620688069800705
:104EB000204602D0FFF782FC04E0FFF7E4FF204623
:104EC000FFF752F9257620680169C943490717D4CD
:104ED000C168C943490713D46FF00401016102207E
:104EE00020762068806910F4407F204602D0FFF7CA
:104EF00065FC04E0FFF7C7FF2046FFF735F925768C
:104F000020680169C943090716D4C168C943090764
:104F100012D46FF008010161042020762068C06976
:104F20008007204602D0FFF749FC04E0FFF7ABFF03
:104F30002046FFF719F9257620680169C943C9069B
:104F400017D4C168C943C90613D46FF010010161B9
:104F5000082020762068C06910F4407F204602D0E7
:104F6000FFF72CFC04E0FFF78EFF2046FFF7FCF86C
:104F7000257620680169C943C90708D1C168C943BA
:104F8000C90704D1891E01612046FEF795FF2068FC
:104F90000169C943090609D4C168C943090605D492
:104FA0006FF0800101612046FEF7A7FE20680169CD
:104FB000C943490609D4C168C943490605D46FF0FD
:104FC000400101612046FFF75DFF20680169C94388
:104FD00089060BD4C168C943890607D46FF0200144
:104FE00001612046BDE87040FEF7D8BD70BD30B508
:104FF000026A22F480520262036A4268C4690D6840
:1050000024F4E64444EA05248D6823F4005343EA7B
:105010000533FE4DA84202D0FD4DA84204D14D6992
:1050200022F4804242EA85124260C4614968016408
:10503000036230BD30B5026A22F480720262036AF4
:105040004268C46923F4007324F073050C682C4390
:105050008D6843EA0523ED4DA84202D0EC4DA842ED
:105060000ED1CD6823F4006343EA05234D6922F491
:10507000405242EA05128D6923F4806342EA051228
:105080004260C4614968C163036230BD30B5026AE1
:1050900022F010020262036A426884690D6824F4F7
:1050A000E64444EA05248D6823F0200343EA05130F
:1050B000D64DA84202D0D64DA8420ED1CD6823F0DD
:1050C000800343EA05134D6922F4406242EA8502F7
:1050D0008D6923F0400342EA850242608461496899
:1050E0008163036230BD30B5026A22F001020262C0
:1050F000056A426883690C6823F073031C438B685C
:1051000025F002052B43C14DA84202D0C04DA84254
:105110000BD123F00805CB6822F440722B434D6974
:1051200023F0040315438A692A4342608461496875
:105130004163036230BD70B5044690F83800012821
:105140000DD0012584F83850022084F8390042B18E
:10515000042A0AD0082A0CD00C2A11D10DE0022012
:1051600070BD2068FFF7BFFF0AE02068FFF78EFFE1
:1051700006E02068FFF75EFF02E02068FFF737FFD8
:1051800084F83950002084F8380070BD30B5046AC6
:1051900024F0100404628569046A25F4407545EA28
:1051A000022222F470454FF6FF7202EA033224F025
:1051B000A0032A43A02404EA011119438261016279
:1051C00030BD70B5046A24F0010404628469056A84
:1051D0008E4EB04214D0B0F1804F11D08D4EB042FF
:1051E0000ED08D4EB0420BD08C4EB04208D0884EBF
:1051F000B04205D08A4EB04202D08A4EB04203D1AE
:1052000024F00304144303E024F0030242F00104F9
:105210001A0724F0F00444EA126225F00A0301F0B0
:105220000A0119438261016270BD2DE9F041044613
:1052300090F838000D4601283BD0012684F83860EC
:10524000022084F839009AB3042A44D02068082A3E
:1052500053D0D5E90027E968036A23F48053036239
:10526000D0F81CC0036A2CF4407C4CEA07274FF6A8
:10527000FF7C27F470470CEA013139434FF4204793
:1052800023F4204307EA02321A43C1610262206814
:10529000C16921F44061C1612068C169AA6841EA1D
:1052A0000221C16184F83960002084F8380026E4C6
:1052B00001E0022023E4D5E90012EB682068FFF743
:1052C00080FF2068816921F00C018161206881697B
:1052D000AA6811430FE0D5E90012EB682068FFF7D8
:1052E00055FF2068816921F44061816120688169EE
:1052F000AA6841EA02218161D4E7D5E9002C2F7B1D
:10530000016A21F480710162C169036A21F003011D
:1053100041EA0C0121F0F00C39074FF420674CEA08
:10532000116123F4206307EA02221A43C161026279
:105330002068C16921F00C01C1612068C169AA68B7
:105340001143AEE770B5044690F838000D460128C9
:105350000DD0012684F83860022084F8390042B16B
:10536000042A18D0082A2AD00C2A4DD139E002206C
:1053700070BD2068FFF7B7FE2068816941F0080121
:1053800081612068816921F004018161206881695F
:105390002A69114311E02068FFF778FE20688169CF
:1053A00041F4006181612068816921F4806181613B
:1053B000206881692A6941EA0221816124E020682C
:1053C000FFF738FE2068C16941F00801C16120681B
:1053D000C16921F00401C1612068C1692A691143D2
:1053E00011E02068FFF703FE2068C16941F4006105
:1053F000C1612068C16921F48061C1612068C1690F
:105400002A6941EA0221C1610EE00000000001406A
:10541000000401400004004000080040000C00406F
:10542000004001400018004084F83960002084F8F2
:10543000380070BDF0B51E4687B00D460446B24236
:1054400063D094F83800012815D0012784F838700B
:10545000022084F839002868009068680190A868E4
:105460000290E868039028690590686906902AB15F
:10547000042A0CD107E0022007B0F0BD694620687D
:10548000FFF731FE03E069462068FFF7FFFD16B124
:10549000042E34D114E01835206895E80E00FFF78B
:1054A00090FE2068816921F00C018161206881688B
:1054B00021F0700181602068816841F0500113E0A3
:1054C0001835206895E80E00FFF760FE20688169B6
:1054D00021F4406181612068816821F07001816060
:1054E0002068816841F0600181602068816821F056
:1054F000070181602068816841F00601816084F8BD
:105500003970002084F83800B6E70120B4E710B500
:10551000806B012180F83910FFF7B4FC10BD2DE934
:10552000F041044690F83900069D9C461646884690
:10553000022807D094F83900012807D1BCF1000FE8
:1055400001D105B163E4022084F839000127F6484F
:10555000F64907EB1523B6F5006F39D009DCB6F52F
:10556000807F10D0B6F5007F15D0B6F5806F1CD1C6
:1055700027E0B6F5805F32D0B6F5005F36D0B6F5DD
:10558000804F12D13AE0E269E949D163E169C86428
:105590002268E06905E0226AD163216AC864226852
:1055A000206A61464C32FDF7EDFB216848EA0500B0
:1055B00088642068C1683143C16084F83970002074
:1055C00025E4626AD163616AC8642268606AE8E7B8
:1055D000A26AD163A16AC8642268A06AE1E7E26AAC
:1055E000D163E16AC8642268E06ADAE7226BD149D4
:1055F000D163216BC8642268206BD2E7626BCE490D
:10560000D163616BC8642268606BCAE770B50D46F0
:105610000446B1F5006F21D009DCB5F5807F10D0CC
:10562000B5F5007F0FD0B5F5806F0FD114E0B5F55B
:10563000805F15D0B5F5005F14D0B5F5804F05D16A
:1056400012E0E06900E0206AFDF7D7FB2068C1683E
:10565000A943C160002070BD606AF5E7A06AF3E766
:10566000E06AF1E7206BEFE7606BEDE72DE9F041D1
:10567000044690F83900069D9C4616468846022846
:1056800007D094F83900012807D1BCF1000F01D1EF
:1056900005B10CE6022084F83900A348012707EB86
:1056A0001523AFF6E561B6F5006F39D009DCB6F524
:1056B000807F10D0B6F5007F15D0B6F5806F1CD175
:1056C00027E0B6F5805F32D0B6F5005F36D0B6F58C
:1056D000804F12D13AE0E2699549D163E169C8642B
:1056E0002168E06905E0226AD163216AC864216803
:1056F000206A62464C31FDF745FB216848EA050007
:1057000088642068C1683143C16084F83970002022
:10571000CDE5626AD163616AC8642168606AE8E7BE
:10572000A26AD163A16AC8642168A06AE1E7E26A5B
:10573000D163E16AC8642168E06ADAE7226B7D49D7
:10574000D163216BC8642168206BD2E7626B7A4910
:10575000D163616BC8642168606BCAE770B50D46A0
:105760000446B1F5006F21D009DCB5F5807F10D07B
:10577000B5F5007F0FD0B5F5806F0FD114E0B5F50A
:10578000805F15D0B5F5005F14D0B5F5804F05D119
:1057900012E0E06900E0206AFDF72FFB2068C16895
:1057A000A943C160002070BD606AF5E7A06AF3E715
:1057B000E06AF1E7206BEFE7606BEDE790F83820E7
:1057C000012A0CD0012200F8382F0223437050F830
:1057D000383C596142700021017008467047022030
:1057E00070472DE9F041044690F8380016460D4602
:1057F000012809D0012784F83870022084F8390084
:105800006868012802D007E0022050E5D5E90221AE
:105810002B69206800F079F936B1042E0FD0082EDC
:1058200019D00C2E2DD121E028680028206881692C
:1058300002D041F080010CE021F0800109E02868ED
:1058400000282068816902D041F4004101E021F480
:105850000041816115E0286800282068C16902D0F4
:1058600041F080010CE021F0800109E02868002867
:105870002068C16902D041F4004101E021F40041F7
:10588000C16184F83970002084F838000FE570B5E4
:10589000044690F83800012817D0012584F83850C4
:1058A000022084F839002068826822F0770222F40E
:1058B0007F4282600868502840D00DDC202862D0EA
:1058C00005DC80B310284AD15AE0022070BD302890
:1058D0005CD0402843D148E0602837D070280BD0F6
:1058E000B0F5805F03D0B0F5005F38D110E02068DC
:1058F000816821F0070109E0CB68D1E90121206826
:1059000000F003F92068816841F07701816026E0AA
:10591000CB68D1E90121206800F0F7F820688168A0
:1059200041F48041F2E728E0A93E00086B410008FD
:10593000BB3E00089F3B00080F550008CA68496835
:10594000206800F0F4F85021206806E0CA68496831
:10595000206800F0FDF86021206800F0E0F884F88D
:105960003950002084F8380070BDCA684968206842
:1059700000F0DDF840212068EFE700212068ECE727
:1059800010212068E9E720212068E6E7302120681F
:10599000E3E70068426822F080020A434260002088
:1059A000704730B40268936823F070044B68234357
:1059B00023F007040B68234393604A6812F00F0F2B
:1059C0001FD11211082A1CD2DFE802F01B1B1B1B7F
:1059D0000B1D23040B69D1E90221006830BC00F0E3
:1059E00094B80268146A136A23F001031362026810
:1059F0009369096923F0F00343EA0111916100689A
:105A0000046230BC70470A698968006830BC00F0E5
:105A10008EB80A698968006830BC00F099B870B522
:105A2000044690F83800012818D0012584F8385031
:105A3000022084F839002046FFF7B3FF2068C168D0
:105A400021F04001C1602068C16821F48041C1603B
:105A500084F83950002084F8380070BD022070BDF1
:105A600070B5044690F83800012818D0012584F854
:105A70003850022084F839002046FFF792FF206852
:105A8000C16841F04001C1602068C16821F48041D3
:105A9000C16084F83950002084F8380070BD0220BD
:105AA00070BD90F838300022012B0AD0012380F815
:105AB000383041B1042909D008290AD00C290DD168
:105AC0000AE00220704701684A6B07E001688A6BB0
:105AD00004E00168CA6B01E001680A6C002180F8EB
